{
  "contractName": "Ballot",
  "abi": [
    {
      "inputs": [
        {
          "internalType": "bytes32[]",
          "name": "proposalNames",
          "type": "bytes32[]"
        }
      ],
      "stateMutability": "nonpayable",
      "type": "constructor"
    },
    {
      "anonymous": false,
      "inputs": [
        {
          "indexed": true,
          "internalType": "address",
          "name": "previousOwner",
          "type": "address"
        },
        {
          "indexed": true,
          "internalType": "address",
          "name": "newOwner",
          "type": "address"
        }
      ],
      "name": "OwnershipTransferred",
      "type": "event"
    },
    {
      "inputs": [],
      "name": "chairperson",
      "outputs": [
        {
          "internalType": "address",
          "name": "",
          "type": "address"
        }
      ],
      "stateMutability": "view",
      "type": "function"
    },
    {
      "inputs": [],
      "name": "owner",
      "outputs": [
        {
          "internalType": "address",
          "name": "",
          "type": "address"
        }
      ],
      "stateMutability": "view",
      "type": "function"
    },
    {
      "inputs": [
        {
          "internalType": "uint256",
          "name": "",
          "type": "uint256"
        }
      ],
      "name": "proposals",
      "outputs": [
        {
          "internalType": "bytes32",
          "name": "name",
          "type": "bytes32"
        },
        {
          "internalType": "uint256",
          "name": "voteCount",
          "type": "uint256"
        }
      ],
      "stateMutability": "view",
      "type": "function"
    },
    {
      "inputs": [],
      "name": "renounceOwnership",
      "outputs": [],
      "stateMutability": "nonpayable",
      "type": "function"
    },
    {
      "inputs": [
        {
          "internalType": "address",
          "name": "newOwner",
          "type": "address"
        }
      ],
      "name": "transferOwnership",
      "outputs": [],
      "stateMutability": "nonpayable",
      "type": "function"
    },
    {
      "inputs": [
        {
          "internalType": "address",
          "name": "",
          "type": "address"
        }
      ],
      "name": "voters",
      "outputs": [
        {
          "internalType": "uint256",
          "name": "weight",
          "type": "uint256"
        },
        {
          "internalType": "bool",
          "name": "voted",
          "type": "bool"
        },
        {
          "internalType": "address",
          "name": "delegate",
          "type": "address"
        },
        {
          "internalType": "uint256",
          "name": "vote",
          "type": "uint256"
        }
      ],
      "stateMutability": "view",
      "type": "function"
    },
    {
      "inputs": [
        {
          "internalType": "address",
          "name": "voter",
          "type": "address"
        }
      ],
      "name": "giveRightToVote",
      "outputs": [],
      "stateMutability": "nonpayable",
      "type": "function"
    },
    {
      "inputs": [
        {
          "internalType": "address",
          "name": "to",
          "type": "address"
        }
      ],
      "name": "delegate",
      "outputs": [],
      "stateMutability": "nonpayable",
      "type": "function"
    },
    {
      "inputs": [
        {
          "internalType": "uint256",
          "name": "proposal",
          "type": "uint256"
        }
      ],
      "name": "vote",
      "outputs": [],
      "stateMutability": "nonpayable",
      "type": "function"
    },
    {
      "inputs": [],
      "name": "winningProposal",
      "outputs": [
        {
          "internalType": "uint256",
          "name": "winningProposal_",
          "type": "uint256"
        }
      ],
      "stateMutability": "view",
      "type": "function"
    },
    {
      "inputs": [],
      "name": "winnerName",
      "outputs": [
        {
          "internalType": "bytes32",
          "name": "winnerName_",
          "type": "bytes32"
        }
      ],
      "stateMutability": "view",
      "type": "function"
    }
  ],
  "bytecode": "0x60806040523480156200001157600080fd5b50604051620019ee380380620019ee833981810160405281019062000037919062000316565b6000620000496200025560201b60201c565b9050806000806101000a81548173ffffffffffffffffffffffffffffffffffffffff021916908373ffffffffffffffffffffffffffffffffffffffff1602179055508073ffffffffffffffffffffffffffffffffffffffff16600073ffffffffffffffffffffffffffffffffffffffff167f8be0079c531659141344cd1fd0a4f28419497f9722a3daafe3b4186f6b6457e060405160405180910390a35033600160006101000a81548173ffffffffffffffffffffffffffffffffffffffff021916908373ffffffffffffffffffffffffffffffffffffffff160217905550600160026000600160009054906101000a900473ffffffffffffffffffffffffffffffffffffffff1673ffffffffffffffffffffffffffffffffffffffff1673ffffffffffffffffffffffffffffffffffffffff1681526020019081526020016000206000018190555060005b81518110156200024d5760036040518060400160405280848481518110620001e6577f4e487b7100000000000000000000000000000000000000000000000000000000600052603260045260246000fd5b60200260200101518152602001600081525090806001815401808255809150506001900390600052602060002090600202016000909190919091506000820151816000015560208201518160010155505080806200024490620003fd565b91505062000195565b5050620004d4565b600033905090565b6000620002746200026e8462000384565b6200035b565b905080838252602082019050828560208602820111156200029457600080fd5b60005b85811015620002c85781620002ad8882620002ff565b84526020840193506020830192505060018101905062000297565b5050509392505050565b600082601f830112620002e457600080fd5b8151620002f68482602086016200025d565b91505092915050565b6000815190506200031081620004ba565b92915050565b6000602082840312156200032957600080fd5b600082015167ffffffffffffffff8111156200034457600080fd5b6200035284828501620002d2565b91505092915050565b6000620003676200037a565b9050620003758282620003c7565b919050565b6000604051905090565b600067ffffffffffffffff821115620003a257620003a16200047a565b5b602082029050602081019050919050565b6000819050919050565b6000819050919050565b620003d282620004a9565b810181811067ffffffffffffffff82111715620003f457620003f36200047a565b5b80604052505050565b60006200040a82620003bd565b91507fffffffffffffffffffffffffffffffffffffffffffffffffffffffffffffffff82141562000440576200043f6200044b565b5b600182019050919050565b7f4e487b7100000000000000000000000000000000000000000000000000000000600052601160045260246000fd5b7f4e487b7100000000000000000000000000000000000000000000000000000000600052604160045260246000fd5b6000601f19601f8301169050919050565b620004c581620003b3565b8114620004d157600080fd5b50565b61150a80620004e46000396000f3fe608060405234801561001057600080fd5b50600436106100a95760003560e01c8063715018a611610071578063715018a6146101535780638da5cb5b1461015d5780639e7b8d611461017b578063a3ec138d14610197578063e2ba53f0146101ca578063f2fde38b146101e8576100a9565b80630121b93f146100ae578063013cf08b146100ca5780632e4176cf146100fb5780635c19a95c14610119578063609ff1bd14610135575b600080fd5b6100c860048036038101906100c39190610e39565b610204565b005b6100e460048036038101906100df9190610e39565b610371565b6040516100f292919061100f565b60405180910390f35b6101036103a5565b6040516101109190610fd9565b60405180910390f35b610133600480360381019061012e9190610e10565b6103cb565b005b61013d61078d565b60405161014a9190611158565b60405180910390f35b61015b610861565b005b61016561099b565b6040516101729190610fd9565b60405180910390f35b61019560048036038101906101909190610e10565b6109c4565b005b6101b160048036038101906101ac9190610e10565b610b7e565b6040516101c19493929190611173565b60405180910390f35b6101d2610bdb565b6040516101df9190610ff4565b60405180910390f35b61020260048036038101906101fd9190610e10565b610c35565b005b6000600260003373ffffffffffffffffffffffffffffffffffffffff1673ffffffffffffffffffffffffffffffffffffffff168152602001908152602001600020905060008160000154141561028f576040517f08c379a000000000000000000000000000000000000000000000000000000000815260040161028690611038565b60405180910390fd5b8060010160009054906101000a900460ff16156102e1576040517f08c379a00000000000000000000000000000000000000000000000000000000081526004016102d890611078565b60405180910390fd5b60018160010160006101000a81548160ff021916908315150217905550818160020181905550806000015460038381548110610346577f4e487b7100000000000000000000000000000000000000000000000000000000600052603260045260246000fd5b9060005260206000209060020201600101600082825461036691906111c9565b925050819055505050565b6003818154811061038157600080fd5b90600052602060002090600202016000915090508060000154908060010154905082565b600160009054906101000a900473ffffffffffffffffffffffffffffffffffffffff1681565b6000600260003373ffffffffffffffffffffffffffffffffffffffff1673ffffffffffffffffffffffffffffffffffffffff16815260200190815260200160002090508060010160009054906101000a900460ff1615610460576040517f08c379a000000000000000000000000000000000000000000000000000000000815260040161045790611098565b60405180910390fd5b3373ffffffffffffffffffffffffffffffffffffffff168273ffffffffffffffffffffffffffffffffffffffff1614156104cf576040517f08c379a00000000000000000000000000000000000000000000000000000000081526004016104c690611138565b60405180910390fd5b5b600073ffffffffffffffffffffffffffffffffffffffff16600260008473ffffffffffffffffffffffffffffffffffffffff1673ffffffffffffffffffffffffffffffffffffffff16815260200190815260200160002060010160019054906101000a900473ffffffffffffffffffffffffffffffffffffffff1673ffffffffffffffffffffffffffffffffffffffff161461063f57600260008373ffffffffffffffffffffffffffffffffffffffff1673ffffffffffffffffffffffffffffffffffffffff16815260200190815260200160002060010160019054906101000a900473ffffffffffffffffffffffffffffffffffffffff1691503373ffffffffffffffffffffffffffffffffffffffff168273ffffffffffffffffffffffffffffffffffffffff16141561063a576040517f08c379a0000000000000000000000000000000000000000000000000000000008152600401610631906110d8565b60405180910390fd5b6104d0565b60018160010160006101000a81548160ff021916908315150217905550818160010160016101000a81548173ffffffffffffffffffffffffffffffffffffffff021916908373ffffffffffffffffffffffffffffffffffffffff1602179055506000600260008473ffffffffffffffffffffffffffffffffffffffff1673ffffffffffffffffffffffffffffffffffffffff16815260200190815260200160002090508060010160009054906101000a900460ff1615610768578160000154600382600201548154811061073c577f4e487b7100000000000000000000000000000000000000000000000000000000600052603260045260246000fd5b9060005260206000209060020201600101600082825461075c91906111c9565b92505081905550610788565b816000015481600001600082825461078091906111c9565b925050819055505b505050565b6000806000905060005b60038054905081101561085c5781600382815481106107df577f4e487b7100000000000000000000000000000000000000000000000000000000600052603260045260246000fd5b90600052602060002090600202016001015411156108495760038181548110610831577f4e487b7100000000000000000000000000000000000000000000000000000000600052603260045260246000fd5b90600052602060002090600202016001015491508092505b808061085490611271565b915050610797565b505090565b610869610dde565b73ffffffffffffffffffffffffffffffffffffffff1661088761099b565b73ffffffffffffffffffffffffffffffffffffffff16146108dd576040517f08c379a00000000000000000000000000000000000000000000000000000000081526004016108d4906110f8565b60405180910390fd5b600073ffffffffffffffffffffffffffffffffffffffff1660008054906101000a900473ffffffffffffffffffffffffffffffffffffffff1673ffffffffffffffffffffffffffffffffffffffff167f8be0079c531659141344cd1fd0a4f28419497f9722a3daafe3b4186f6b6457e060405160405180910390a360008060006101000a81548173ffffffffffffffffffffffffffffffffffffffff021916908373ffffffffffffffffffffffffffffffffffffffff160217905550565b60008060009054906101000a900473ffffffffffffffffffffffffffffffffffffffff16905090565b600160009054906101000a900473ffffffffffffffffffffffffffffffffffffffff1673ffffffffffffffffffffffffffffffffffffffff163373ffffffffffffffffffffffffffffffffffffffff1614610a54576040517f08c379a0000000000000000000000000000000000000000000000000000000008152600401610a4b906110b8565b60405180910390fd5b600260008273ffffffffffffffffffffffffffffffffffffffff1673ffffffffffffffffffffffffffffffffffffffff16815260200190815260200160002060010160009054906101000a900460ff1615610ae4576040517f08c379a0000000000000000000000000000000000000000000000000000000008152600401610adb90611118565b60405180910390fd5b6000600260008373ffffffffffffffffffffffffffffffffffffffff1673ffffffffffffffffffffffffffffffffffffffff1681526020019081526020016000206000015414610b3357600080fd5b6001600260008373ffffffffffffffffffffffffffffffffffffffff1673ffffffffffffffffffffffffffffffffffffffff1681526020019081526020016000206000018190555050565b60026020528060005260406000206000915090508060000154908060010160009054906101000a900460ff16908060010160019054906101000a900473ffffffffffffffffffffffffffffffffffffffff16908060020154905084565b60006003610be761078d565b81548110610c1e577f4e487b7100000000000000000000000000000000000000000000000000000000600052603260045260246000fd5b906000526020600020906002020160000154905090565b610c3d610dde565b73ffffffffffffffffffffffffffffffffffffffff16610c5b61099b565b73ffffffffffffffffffffffffffffffffffffffff1614610cb1576040517f08c379a0000000000000000000000000000000000000000000000000000000008152600401610ca8906110f8565b60405180910390fd5b600073ffffffffffffffffffffffffffffffffffffffff168173ffffffffffffffffffffffffffffffffffffffff161415610d21576040517f08c379a0000000000000000000000000000000000000000000000000000000008152600401610d1890611058565b60405180910390fd5b8073ffffffffffffffffffffffffffffffffffffffff1660008054906101000a900473ffffffffffffffffffffffffffffffffffffffff1673ffffffffffffffffffffffffffffffffffffffff167f8be0079c531659141344cd1fd0a4f28419497f9722a3daafe3b4186f6b6457e060405160405180910390a3806000806101000a81548173ffffffffffffffffffffffffffffffffffffffff021916908373ffffffffffffffffffffffffffffffffffffffff16021790555050565b600033905090565b600081359050610df5816114a6565b92915050565b600081359050610e0a816114bd565b92915050565b600060208284031215610e2257600080fd5b6000610e3084828501610de6565b91505092915050565b600060208284031215610e4b57600080fd5b6000610e5984828501610dfb565b91505092915050565b610e6b8161121f565b82525050565b610e7a81611231565b82525050565b610e898161123d565b82525050565b6000610e9c6014836111b8565b9150610ea7826112e9565b602082019050919050565b6000610ebf6026836111b8565b9150610eca82611312565b604082019050919050565b6000610ee2600e836111b8565b9150610eed82611361565b602082019050919050565b6000610f056012836111b8565b9150610f108261138a565b602082019050919050565b6000610f286028836111b8565b9150610f33826113b3565b604082019050919050565b6000610f4b6019836111b8565b9150610f5682611402565b602082019050919050565b6000610f6e6020836111b8565b9150610f798261142b565b602082019050919050565b6000610f916018836111b8565b9150610f9c82611454565b602082019050919050565b6000610fb4601e836111b8565b9150610fbf8261147d565b602082019050919050565b610fd381611267565b82525050565b6000602082019050610fee6000830184610e62565b92915050565b60006020820190506110096000830184610e80565b92915050565b60006040820190506110246000830185610e80565b6110316020830184610fca565b9392505050565b6000602082019050818103600083015261105181610e8f565b9050919050565b6000602082019050818103600083015261107181610eb2565b9050919050565b6000602082019050818103600083015261109181610ed5565b9050919050565b600060208201905081810360008301526110b181610ef8565b9050919050565b600060208201905081810360008301526110d181610f1b565b9050919050565b600060208201905081810360008301526110f181610f3e565b9050919050565b6000602082019050818103600083015261111181610f61565b9050919050565b6000602082019050818103600083015261113181610f84565b9050919050565b6000602082019050818103600083015261115181610fa7565b9050919050565b600060208201905061116d6000830184610fca565b92915050565b60006080820190506111886000830187610fca565b6111956020830186610e71565b6111a26040830185610e62565b6111af6060830184610fca565b95945050505050565b600082825260208201905092915050565b60006111d482611267565b91506111df83611267565b9250827fffffffffffffffffffffffffffffffffffffffffffffffffffffffffffffffff03821115611214576112136112ba565b5b828201905092915050565b600061122a82611247565b9050919050565b60008115159050919050565b6000819050919050565b600073ffffffffffffffffffffffffffffffffffffffff82169050919050565b6000819050919050565b600061127c82611267565b91507fffffffffffffffffffffffffffffffffffffffffffffffffffffffffffffffff8214156112af576112ae6112ba565b5b600182019050919050565b7f4e487b7100000000000000000000000000000000000000000000000000000000600052601160045260246000fd5b7f486173206e6f20726967687420746f20766f7465000000000000000000000000600082015250565b7f4f776e61626c653a206e6577206f776e657220697320746865207a65726f206160008201527f6464726573730000000000000000000000000000000000000000000000000000602082015250565b7f416c726561647920766f7465642e000000000000000000000000000000000000600082015250565b7f596f7520616c726561647920766f7465642e0000000000000000000000000000600082015250565b7f4f6e6c79206368616972706572736f6e2063616e20676976652072696768742060008201527f746f20766f74652e000000000000000000000000000000000000000000000000602082015250565b7f466f756e64206c6f6f7020696e2064656c65676174696f6e2e00000000000000600082015250565b7f4f776e61626c653a2063616c6c6572206973206e6f7420746865206f776e6572600082015250565b7f54686520766f74657220616c726561647920766f7465642e0000000000000000600082015250565b7f53656c662d64656c65676174696f6e20697320646973616c6c6f7765642e0000600082015250565b6114af8161121f565b81146114ba57600080fd5b50565b6114c681611267565b81146114d157600080fd5b5056fea2646970667358221220453ad486fb5352086f093a7f1a7125be0090b8994aa74159078ff47e8db5670864736f6c63430008040033",
  "immutableReferences": {},
  "source": "// SPDX-License-Identifier: GPL-3.0\npragma solidity 0.8.4;\n\nimport './Ownable.sol';\n\n/* \n\n    Port `attackVictoryProbability`-related logic\n      to the code that will determine if a worker\n      reached the threshold error rate?\n\n*/\n\n/// @title Voting with delegation.\ncontract Ballot is Ownable {\n    // This declares a new complex type which will\n    // be used for variables later.\n    // It will represent a single voter.\n    struct Voter {\n        uint weight; // weight is accumulated by delegation\n        bool voted;  // if true, that person already voted\n        address delegate; // person delegated to\n        uint vote;   // index of the voted proposal\n    }\n\n    // This is a type for a single proposal.\n    struct Proposal {\n        bytes32 name;   // short name (up to 32 bytes)\n        uint voteCount; // number of accumulated votes\n    }\n\n    address public chairperson;\n\n    // This declares a state variable that\n    // stores a `Voter` struct for each possible address.\n    mapping(address => Voter) public voters;\n\n    // A dynamically-sized array of `Proposal` structs.\n    Proposal[] public proposals;\n\n    /// Create a new ballot to choose one of `proposalNames`.\n    constructor(bytes32[] memory proposalNames) {\n        chairperson = msg.sender;\n        voters[chairperson].weight = 1;\n\n        // For each of the provided proposal names,\n        // create a new proposal object and add it\n        // to the end of the array.\n        for (uint i = 0; i < proposalNames.length; i++) {\n            // `Proposal({...})` creates a temporary\n            // Proposal object and `proposals.push(...)`\n            // appends it to the end of `proposals`.\n            proposals.push(Proposal({\n                name: proposalNames[i],\n                voteCount: 0\n            }));\n        }\n    }\n\n    // Give `voter` the right to vote on this ballot.\n    // May only be called by `chairperson`.\n    function giveRightToVote(address voter) public {\n        // If the first argument of `require` evaluates\n        // to `false`, execution terminates and all\n        // changes to the state and to Ether balances\n        // are reverted.\n        // This used to consume all gas in old EVM versions, but\n        // not anymore.\n        // It is often a good idea to use `require` to check if\n        // functions are called correctly.\n        // As a second argument, you can also provide an\n        // explanation about what went wrong.\n        require(\n            msg.sender == chairperson,\n            \"Only chairperson can give right to vote.\"\n        );\n        require(\n            !voters[voter].voted,\n            \"The voter already voted.\"\n        );\n        require(voters[voter].weight == 0);\n        voters[voter].weight = 1;\n    }\n\n    /// Delegate your vote to the voter `to`.\n    function delegate(address to) public {\n        // assigns reference\n        Voter storage sender = voters[msg.sender];\n        require(!sender.voted, \"You already voted.\");\n\n        require(to != msg.sender, \"Self-delegation is disallowed.\");\n\n        // Forward the delegation as long as\n        // `to` also delegated.\n        // In general, such loops are very dangerous,\n        // because if they run too long, they might\n        // need more gas than is available in a block.\n        // In this case, the delegation will not be executed,\n        // but in other situations, such loops might\n        // cause a contract to get \"stuck\" completely.\n        while (voters[to].delegate != address(0)) {\n            to = voters[to].delegate;\n\n            // We found a loop in the delegation, not allowed.\n            require(to != msg.sender, \"Found loop in delegation.\");\n        }\n\n        // Since `sender` is a reference, this\n        // modifies `voters[msg.sender].voted`\n        sender.voted = true;\n        sender.delegate = to;\n        Voter storage delegate_ = voters[to];\n        if (delegate_.voted) {\n            // If the delegate already voted,\n            // directly add to the number of votes\n            proposals[delegate_.vote].voteCount += sender.weight;\n        } else {\n            // If the delegate did not vote yet,\n            // add to her weight.\n            delegate_.weight += sender.weight;\n        }\n    }\n\n    /// Give your vote (including votes delegated to you)\n    /// to proposal `proposals[proposal].name`.\n    function vote(uint proposal) public {\n        Voter storage sender = voters[msg.sender];\n        require(sender.weight != 0, \"Has no right to vote\");\n        require(!sender.voted, \"Already voted.\");\n        sender.voted = true;\n        sender.vote = proposal;\n\n        // If `proposal` is out of the range of the array,\n        // this will throw automatically and revert all\n        // changes.\n        proposals[proposal].voteCount += sender.weight;\n    }\n\n    /// @dev Computes the winning proposal taking all\n    /// previous votes into account.\n    function winningProposal() public view\n            returns (uint winningProposal_)\n    {\n        uint winningVoteCount = 0;\n        for (uint p = 0; p < proposals.length; p++) {\n            if (proposals[p].voteCount > winningVoteCount) {\n                winningVoteCount = proposals[p].voteCount;\n                winningProposal_ = p;\n            }\n        }\n    }\n\n    // Calls winningProposal() function to get the index\n    // of the winner contained in the proposals array and then\n    // returns the name of the winner\n    function winnerName() public view\n            returns (bytes32 winnerName_)\n    {\n        winnerName_ = proposals[winningProposal()].name;\n    }\n}\n",
  "sourcePath": "/home/wsladmin/Morphware/service/contracts/Ballot.sol",
  "compiler": {
    "name": "solc",
    "version": "0.8.4+commit.c7e474f2.Emscripten.clang"
  },
  "schemaVersion": "3.4.1",
  "updatedAt": "2021-09-24T18:09:50.150Z",
  "devdoc": {
    "kind": "dev",
    "methods": {
      "owner()": {
        "details": "Returns the address of the current owner."
      },
      "renounceOwnership()": {
        "details": "Leaves the contract without owner. It will not be possible to call `onlyOwner` functions anymore. Can only be called by the current owner. NOTE: Renouncing ownership will leave the contract without an owner, thereby removing any functionality that is only available to the owner."
      },
      "transferOwnership(address)": {
        "details": "Transfers ownership of the contract to a new account (`newOwner`). Can only be called by the current owner."
      },
      "winningProposal()": {
        "details": "Computes the winning proposal taking all previous votes into account."
      }
    },
    "title": "Voting with delegation.",
    "version": 1
  },
  "userdoc": {
    "kind": "user",
    "methods": {
      "constructor": {
        "notice": "Create a new ballot to choose one of `proposalNames`."
      },
      "delegate(address)": {
        "notice": "Delegate your vote to the voter `to`."
      },
      "vote(uint256)": {
        "notice": "Give your vote (including votes delegated to you) to proposal `proposals[proposal].name`."
      }
    },
    "version": 1
  }
}