{
  "contractName": "VickreyAuction",
  "abi": [
    {
      "inputs": [
        {
          "internalType": "contract IERC20",
          "name": "_token",
          "type": "address"
        }
      ],
      "stateMutability": "nonpayable",
      "type": "constructor"
    },
    {
      "inputs": [],
      "name": "AuctionEndAlreadyCalled",
      "type": "error"
    },
    {
      "inputs": [
        {
          "internalType": "uint256",
          "name": "time",
          "type": "uint256"
        }
      ],
      "name": "TooEarly",
      "type": "error"
    },
    {
      "inputs": [
        {
          "internalType": "uint256",
          "name": "time",
          "type": "uint256"
        }
      ],
      "name": "TooLate",
      "type": "error"
    },
    {
      "anonymous": false,
      "inputs": [
        {
          "indexed": true,
          "internalType": "address",
          "name": "endUser",
          "type": "address"
        },
        {
          "indexed": false,
          "internalType": "uint256",
          "name": "auctionId",
          "type": "uint256"
        },
        {
          "indexed": false,
          "internalType": "address",
          "name": "winner",
          "type": "address"
        },
        {
          "indexed": false,
          "internalType": "uint256",
          "name": "secondHighestBid",
          "type": "uint256"
        }
      ],
      "name": "AuctionEnded",
      "type": "event"
    },
    {
      "inputs": [
        {
          "internalType": "address",
          "name": "",
          "type": "address"
        },
        {
          "internalType": "uint256",
          "name": "",
          "type": "uint256"
        }
      ],
      "name": "auctions",
      "outputs": [
        {
          "internalType": "uint256",
          "name": "minimumPayout",
          "type": "uint256"
        },
        {
          "internalType": "uint256",
          "name": "reward",
          "type": "uint256"
        },
        {
          "internalType": "uint256",
          "name": "biddingDeadline",
          "type": "uint256"
        },
        {
          "internalType": "uint256",
          "name": "revealDeadline",
          "type": "uint256"
        },
        {
          "internalType": "uint256",
          "name": "highestBid",
          "type": "uint256"
        },
        {
          "internalType": "uint256",
          "name": "secondHighestBid",
          "type": "uint256"
        },
        {
          "internalType": "address",
          "name": "highestBidder",
          "type": "address"
        },
        {
          "internalType": "bool",
          "name": "ended",
          "type": "bool"
        }
      ],
      "stateMutability": "view",
      "type": "function",
      "constant": true
    },
    {
      "inputs": [],
      "name": "token",
      "outputs": [
        {
          "internalType": "contract IERC20",
          "name": "",
          "type": "address"
        }
      ],
      "stateMutability": "view",
      "type": "function",
      "constant": true
    },
    {
      "inputs": [
        {
          "internalType": "uint256",
          "name": "_minimumPayout",
          "type": "uint256"
        },
        {
          "internalType": "uint256",
          "name": "_biddingDeadline",
          "type": "uint256"
        },
        {
          "internalType": "uint256",
          "name": "_revealDeadline",
          "type": "uint256"
        },
        {
          "internalType": "uint256",
          "name": "_reward",
          "type": "uint256"
        },
        {
          "internalType": "address",
          "name": "_endUser",
          "type": "address"
        }
      ],
      "name": "start",
      "outputs": [],
      "stateMutability": "nonpayable",
      "type": "function"
    },
    {
      "inputs": [
        {
          "internalType": "address",
          "name": "_endUser",
          "type": "address"
        },
        {
          "internalType": "uint256",
          "name": "_auctionId",
          "type": "uint256"
        },
        {
          "internalType": "bytes32",
          "name": "_blindedBid",
          "type": "bytes32"
        },
        {
          "internalType": "uint256",
          "name": "_amount",
          "type": "uint256"
        }
      ],
      "name": "bid",
      "outputs": [],
      "stateMutability": "nonpayable",
      "type": "function"
    },
    {
      "inputs": [
        {
          "internalType": "address",
          "name": "_endUser",
          "type": "address"
        },
        {
          "internalType": "uint256",
          "name": "_auctionId",
          "type": "uint256"
        },
        {
          "internalType": "uint256[]",
          "name": "_amounts",
          "type": "uint256[]"
        },
        {
          "internalType": "bool[]",
          "name": "_fake",
          "type": "bool[]"
        },
        {
          "internalType": "bytes32[]",
          "name": "_secret",
          "type": "bytes32[]"
        }
      ],
      "name": "reveal",
      "outputs": [],
      "stateMutability": "nonpayable",
      "type": "function"
    },
    {
      "inputs": [],
      "name": "withdraw",
      "outputs": [],
      "stateMutability": "nonpayable",
      "type": "function"
    },
    {
      "inputs": [
        {
          "internalType": "address",
          "name": "_endUser",
          "type": "address"
        },
        {
          "internalType": "uint256",
          "name": "_auctionId",
          "type": "uint256"
        }
      ],
      "name": "auctionEnd",
      "outputs": [],
      "stateMutability": "nonpayable",
      "type": "function"
    },
    {
      "inputs": [
        {
          "internalType": "address",
          "name": "_endUser",
          "type": "address"
        },
        {
          "internalType": "uint256",
          "name": "_auctionId",
          "type": "uint256"
        }
      ],
      "name": "payout",
      "outputs": [],
      "stateMutability": "nonpayable",
      "type": "function"
    }
  ],
  "bytecode": "0x60806040523480156200001157600080fd5b506040516200296338038062002963833981810160405281019062000037919062000095565b806000806101000a81548173ffffffffffffffffffffffffffffffffffffffff021916908373ffffffffffffffffffffffffffffffffffffffff1602179055505062000123565b6000815190506200008f8162000109565b92915050565b600060208284031215620000a857600080fd5b6000620000b8848285016200007e565b91505092915050565b6000620000ce82620000e9565b9050919050565b6000620000e282620000c1565b9050919050565b600073ffffffffffffffffffffffffffffffffffffffff82169050919050565b6200011481620000d5565b81146200012057600080fd5b50565b61283080620001336000396000f3fe608060405234801561001057600080fd5b50600436106100885760003560e01c806344f91c1e1161005b57806344f91c1e146100eb578063c56114c614610122578063e94a900e1461013e578063fc0c546a1461015a57610088565b8063117de2fd1461008d5780631dcf249f146100a9578063290a2d10146100c55780633ccfd60b146100e1575b600080fd5b6100a760048036038101906100a29190611ecd565b610178565b005b6100c360048036038101906100be9190611ecd565b610697565b005b6100df60048036038101906100da9190611f09565b610a58565b005b6100e9610f6e565b005b61010560048036038101906101009190611ecd565b6110b2565b604051610119989796959493929190612371565b60405180910390f35b61013c6004803603810190610137919061207d565b611144565b005b61015860048036038101906101539190611fc8565b6112ae565b005b6101626116f6565b60405161016f91906122a4565b60405180910390f35b600160008373ffffffffffffffffffffffffffffffffffffffff1673ffffffffffffffffffffffffffffffffffffffff16815260200190815260200160002081815481106101ef577f4e487b7100000000000000000000000000000000000000000000000000000000600052603260045260246000fd5b906000526020600020906007020160060160149054906101000a900460ff1661024d576040517f08c379a0000000000000000000000000000000000000000000000000000000008152600401610244906122df565b60405180910390fd5b60008054906101000a900473ffffffffffffffffffffffffffffffffffffffff1673ffffffffffffffffffffffffffffffffffffffff1663a9059cbb83600160008673ffffffffffffffffffffffffffffffffffffffff1673ffffffffffffffffffffffffffffffffffffffff1681526020019081526020016000208481548110610301577f4e487b7100000000000000000000000000000000000000000000000000000000600052603260045260246000fd5b9060005260206000209060070201600501546040518363ffffffff1660e01b815260040161033092919061227b565b602060405180830381600087803b15801561034a57600080fd5b505af115801561035e573d6000803e3d6000fd5b505050506040513d601f19601f82011682018060405250810190610382919061202b565b506000600160008473ffffffffffffffffffffffffffffffffffffffff1673ffffffffffffffffffffffffffffffffffffffff16815260200190815260200160002082815481106103fc577f4e487b7100000000000000000000000000000000000000000000000000000000600052603260045260246000fd5b906000526020600020906007020160050154600160008573ffffffffffffffffffffffffffffffffffffffff1673ffffffffffffffffffffffffffffffffffffffff1681526020019081526020016000208381548110610485577f4e487b7100000000000000000000000000000000000000000000000000000000600052603260045260246000fd5b9060005260206000209060070201600401546104a191906124ff565b90506000600160008573ffffffffffffffffffffffffffffffffffffffff1673ffffffffffffffffffffffffffffffffffffffff168152602001908152602001600020838154811061051c577f4e487b7100000000000000000000000000000000000000000000000000000000600052603260045260246000fd5b9060005260206000209060070201600101548261053991906124a9565b905060008054906101000a900473ffffffffffffffffffffffffffffffffffffffff1673ffffffffffffffffffffffffffffffffffffffff1663a9059cbb600160008773ffffffffffffffffffffffffffffffffffffffff1673ffffffffffffffffffffffffffffffffffffffff16815260200190815260200160002085815481106105ee577f4e487b7100000000000000000000000000000000000000000000000000000000600052603260045260246000fd5b906000526020600020906007020160060160009054906101000a900473ffffffffffffffffffffffffffffffffffffffff16836040518363ffffffff1660e01b815260040161063e92919061227b565b602060405180830381600087803b15801561065857600080fd5b505af115801561066c573d6000803e3d6000fd5b505050506040513d601f19601f82011682018060405250810190610690919061202b565b5050505050565b600160008373ffffffffffffffffffffffffffffffffffffffff1673ffffffffffffffffffffffffffffffffffffffff168152602001908152602001600020818154811061070e577f4e487b7100000000000000000000000000000000000000000000000000000000600052603260045260246000fd5b90600052602060002090600702016003015480421161076457806040517f2a35a32400000000000000000000000000000000000000000000000000000000815260040161075b919061231f565b60405180910390fd5b600160008473ffffffffffffffffffffffffffffffffffffffff1673ffffffffffffffffffffffffffffffffffffffff16815260200190815260200160002082815481106107db577f4e487b7100000000000000000000000000000000000000000000000000000000600052603260045260246000fd5b906000526020600020906007020160060160149054906101000a900460ff1615610831576040517f61cfdcf800000000000000000000000000000000000000000000000000000000815260040160405180910390fd5b8273ffffffffffffffffffffffffffffffffffffffff167f4d31a5599cdb48031c1f03259adbd513be468c5735012719a1a9850869b558b183600160008773ffffffffffffffffffffffffffffffffffffffff1673ffffffffffffffffffffffffffffffffffffffff16815260200190815260200160002085815481106108e1577f4e487b7100000000000000000000000000000000000000000000000000000000600052603260045260246000fd5b906000526020600020906007020160060160009054906101000a900473ffffffffffffffffffffffffffffffffffffffff16600160008873ffffffffffffffffffffffffffffffffffffffff1673ffffffffffffffffffffffffffffffffffffffff168152602001908152602001600020868154811061098a577f4e487b7100000000000000000000000000000000000000000000000000000000600052603260045260246000fd5b9060005260206000209060070201600501546040516109ab9392919061233a565b60405180910390a260018060008573ffffffffffffffffffffffffffffffffffffffff1673ffffffffffffffffffffffffffffffffffffffff1681526020019081526020016000208381548110610a2b577f4e487b7100000000000000000000000000000000000000000000000000000000600052603260045260246000fd5b906000526020600020906007020160060160146101000a81548160ff021916908315150217905550505050565b600160008673ffffffffffffffffffffffffffffffffffffffff1673ffffffffffffffffffffffffffffffffffffffff1681526020019081526020016000208481548110610acf577f4e487b7100000000000000000000000000000000000000000000000000000000600052603260045260246000fd5b906000526020600020906007020160020154804211610b2557806040517f2a35a324000000000000000000000000000000000000000000000000000000008152600401610b1c919061231f565b60405180910390fd5b600160008773ffffffffffffffffffffffffffffffffffffffff1673ffffffffffffffffffffffffffffffffffffffff1681526020019081526020016000208581548110610b9c577f4e487b7100000000000000000000000000000000000000000000000000000000600052603260045260246000fd5b906000526020600020906007020160030154804210610bf257806040517f691e5682000000000000000000000000000000000000000000000000000000008152600401610be9919061231f565b60405180910390fd5b6000600260003373ffffffffffffffffffffffffffffffffffffffff1673ffffffffffffffffffffffffffffffffffffffff168152602001908152602001600020805490509050600080600090505b82811015610eb4576000600260003373ffffffffffffffffffffffffffffffffffffffff1673ffffffffffffffffffffffffffffffffffffffff1681526020019081526020016000208281548110610cc2577f4e487b7100000000000000000000000000000000000000000000000000000000600052603260045260246000fd5b906000526020600020906004020190508a73ffffffffffffffffffffffffffffffffffffffff168160020160009054906101000a900473ffffffffffffffffffffffffffffffffffffffff1673ffffffffffffffffffffffffffffffffffffffff16148015610d345750898160030154145b15610e9f5760008060008b8581518110610d77577f4e487b7100000000000000000000000000000000000000000000000000000000600052603260045260246000fd5b60200260200101518b8681518110610db8577f4e487b7100000000000000000000000000000000000000000000000000000000600052603260045260246000fd5b60200260200101518b8781518110610df9577f4e487b7100000000000000000000000000000000000000000000000000000000600052603260045260246000fd5b6020026020010151925092509250828282604051602001610e1c939291906121de565b60405160208183030381529060405280519060200120846000015414610e455750505050610ea1565b836001015486610e5591906124a9565b955081158015610e69575082846001015410155b15610e8f57610e7a8e8e338661171a565b15610e8e578286610e8b91906124ff565b95505b5b6000801b84600001819055505050505b505b8080610eac906125da565b915050610c41565b5060008054906101000a900473ffffffffffffffffffffffffffffffffffffffff1673ffffffffffffffffffffffffffffffffffffffff1663a9059cbb33836040518363ffffffff1660e01b8152600401610f1092919061227b565b602060405180830381600087803b158015610f2a57600080fd5b505af1158015610f3e573d6000803e3d6000fd5b505050506040513d601f19601f82011682018060405250810190610f62919061202b565b50505050505050505050565b6000600360003373ffffffffffffffffffffffffffffffffffffffff1673ffffffffffffffffffffffffffffffffffffffff16815260200190815260200160002054905060008111156110af576000600360003373ffffffffffffffffffffffffffffffffffffffff1673ffffffffffffffffffffffffffffffffffffffff1681526020019081526020016000208190555060008054906101000a900473ffffffffffffffffffffffffffffffffffffffff1673ffffffffffffffffffffffffffffffffffffffff1663a9059cbb33836040518363ffffffff1660e01b815260040161105b92919061227b565b602060405180830381600087803b15801561107557600080fd5b505af1158015611089573d6000803e3d6000fd5b505050506040513d601f19601f820116820180604052508101906110ad919061202b565b505b50565b600160205281600052604060002081815481106110ce57600080fd5b9060005260206000209060070201600091509150508060000154908060010154908060020154908060030154908060040154908060050154908060060160009054906101000a900473ffffffffffffffffffffffffffffffffffffffff16908060060160149054906101000a900460ff16905088565b600160008273ffffffffffffffffffffffffffffffffffffffff1673ffffffffffffffffffffffffffffffffffffffff1681526020019081526020016000206040518061010001604052808781526020018481526020018681526020018581526020016000815260200160008152602001600073ffffffffffffffffffffffffffffffffffffffff168152602001600015158152509080600181540180825580915050600190039060005260206000209060070201600090919091909150600082015181600001556020820151816001015560408201518160020155606082015181600301556080820151816004015560a0820151816005015560c08201518160060160006101000a81548173ffffffffffffffffffffffffffffffffffffffff021916908373ffffffffffffffffffffffffffffffffffffffff16021790555060e08201518160060160146101000a81548160ff02191690831515021790555050505050505050565b600160008573ffffffffffffffffffffffffffffffffffffffff1673ffffffffffffffffffffffffffffffffffffffff1681526020019081526020016000208381548110611325577f4e487b7100000000000000000000000000000000000000000000000000000000600052603260045260246000fd5b90600052602060002090600702016002015480421061137b57806040517f691e5682000000000000000000000000000000000000000000000000000000008152600401611372919061231f565b60405180910390fd5b600160008673ffffffffffffffffffffffffffffffffffffffff1673ffffffffffffffffffffffffffffffffffffffff16815260200190815260200160002084815481106113f2577f4e487b7100000000000000000000000000000000000000000000000000000000600052603260045260246000fd5b9060005260206000209060070201600001548211611445576040517f08c379a000000000000000000000000000000000000000000000000000000000815260040161143c906122bf565b60405180910390fd5b60008060009054906101000a900473ffffffffffffffffffffffffffffffffffffffff1673ffffffffffffffffffffffffffffffffffffffff1663dd62ed3e33306040518363ffffffff1660e01b81526004016114a392919061221b565b60206040518083038186803b1580156114bb57600080fd5b505afa1580156114cf573d6000803e3d6000fd5b505050506040513d601f19601f820116820180604052508101906114f39190612054565b905082811015611538576040517f08c379a000000000000000000000000000000000000000000000000000000000815260040161152f906122ff565b60405180910390fd5b60008054906101000a900473ffffffffffffffffffffffffffffffffffffffff1673ffffffffffffffffffffffffffffffffffffffff166323b872dd3330866040518463ffffffff1660e01b815260040161159593929190612244565b602060405180830381600087803b1580156115af57600080fd5b505af11580156115c3573d6000803e3d6000fd5b505050506040513d601f19601f820116820180604052508101906115e7919061202b565b50600260003373ffffffffffffffffffffffffffffffffffffffff1673ffffffffffffffffffffffffffffffffffffffff16815260200190815260200160002060405180608001604052808681526020018581526020018873ffffffffffffffffffffffffffffffffffffffff168152602001878152509080600181540180825580915050600190039060005260206000209060040201600090919091909150600082015181600001556020820151816001015560408201518160020160006101000a81548173ffffffffffffffffffffffffffffffffffffffff021916908373ffffffffffffffffffffffffffffffffffffffff160217905550606082015181600301555050505050505050565b60008054906101000a900473ffffffffffffffffffffffffffffffffffffffff1681565b6000600160008673ffffffffffffffffffffffffffffffffffffffff1673ffffffffffffffffffffffffffffffffffffffff1681526020019081526020016000208481548110611793577f4e487b7100000000000000000000000000000000000000000000000000000000600052603260045260246000fd5b90600052602060002090600702016004015482116117b45760009050611c85565b600073ffffffffffffffffffffffffffffffffffffffff16600160008773ffffffffffffffffffffffffffffffffffffffff1673ffffffffffffffffffffffffffffffffffffffff1681526020019081526020016000208581548110611843577f4e487b7100000000000000000000000000000000000000000000000000000000600052603260045260246000fd5b906000526020600020906007020160060160009054906101000a900473ffffffffffffffffffffffffffffffffffffffff1673ffffffffffffffffffffffffffffffffffffffff1614611a1757600160008673ffffffffffffffffffffffffffffffffffffffff1673ffffffffffffffffffffffffffffffffffffffff1681526020019081526020016000208481548110611907577f4e487b7100000000000000000000000000000000000000000000000000000000600052603260045260246000fd5b90600052602060002090600702016004015460036000600160008973ffffffffffffffffffffffffffffffffffffffff1673ffffffffffffffffffffffffffffffffffffffff1681526020019081526020016000208781548110611994577f4e487b7100000000000000000000000000000000000000000000000000000000600052603260045260246000fd5b906000526020600020906007020160060160009054906101000a900473ffffffffffffffffffffffffffffffffffffffff1673ffffffffffffffffffffffffffffffffffffffff1673ffffffffffffffffffffffffffffffffffffffff1681526020019081526020016000206000828254611a0f91906124a9565b925050819055505b600160008673ffffffffffffffffffffffffffffffffffffffff1673ffffffffffffffffffffffffffffffffffffffff1681526020019081526020016000208481548110611a8e577f4e487b7100000000000000000000000000000000000000000000000000000000600052603260045260246000fd5b906000526020600020906007020160040154600160008773ffffffffffffffffffffffffffffffffffffffff1673ffffffffffffffffffffffffffffffffffffffff1681526020019081526020016000208581548110611b17577f4e487b7100000000000000000000000000000000000000000000000000000000600052603260045260246000fd5b90600052602060002090600702016005018190555081600160008773ffffffffffffffffffffffffffffffffffffffff1673ffffffffffffffffffffffffffffffffffffffff1681526020019081526020016000208581548110611ba4577f4e487b7100000000000000000000000000000000000000000000000000000000600052603260045260246000fd5b90600052602060002090600702016004018190555082600160008773ffffffffffffffffffffffffffffffffffffffff1673ffffffffffffffffffffffffffffffffffffffff1681526020019081526020016000208581548110611c31577f4e487b7100000000000000000000000000000000000000000000000000000000600052603260045260246000fd5b906000526020600020906007020160060160006101000a81548173ffffffffffffffffffffffffffffffffffffffff021916908373ffffffffffffffffffffffffffffffffffffffff160217905550600190505b949350505050565b6000611ca0611c9b84612414565b6123ef565b90508083825260208201905082856020860282011115611cbf57600080fd5b60005b85811015611cef5781611cd58882611e64565b845260208401935060208301925050600181019050611cc2565b5050509392505050565b6000611d0c611d0784612440565b6123ef565b90508083825260208201905082856020860282011115611d2b57600080fd5b60005b85811015611d5b5781611d418882611e8e565b845260208401935060208301925050600181019050611d2e565b5050509392505050565b6000611d78611d738461246c565b6123ef565b90508083825260208201905082856020860282011115611d9757600080fd5b60005b85811015611dc75781611dad8882611ea3565b845260208401935060208301925050600181019050611d9a565b5050509392505050565b600081359050611de08161279e565b92915050565b600082601f830112611df757600080fd5b8135611e07848260208601611c8d565b91505092915050565b600082601f830112611e2157600080fd5b8135611e31848260208601611cf9565b91505092915050565b600082601f830112611e4b57600080fd5b8135611e5b848260208601611d65565b91505092915050565b600081359050611e73816127b5565b92915050565b600081519050611e88816127b5565b92915050565b600081359050611e9d816127cc565b92915050565b600081359050611eb2816127e3565b92915050565b600081519050611ec7816127e3565b92915050565b60008060408385031215611ee057600080fd5b6000611eee85828601611dd1565b9250506020611eff85828601611ea3565b9150509250929050565b600080600080600060a08688031215611f2157600080fd5b6000611f2f88828901611dd1565b9550506020611f4088828901611ea3565b945050604086013567ffffffffffffffff811115611f5d57600080fd5b611f6988828901611e3a565b935050606086013567ffffffffffffffff811115611f8657600080fd5b611f9288828901611de6565b925050608086013567ffffffffffffffff811115611faf57600080fd5b611fbb88828901611e10565b9150509295509295909350565b60008060008060808587031215611fde57600080fd5b6000611fec87828801611dd1565b9450506020611ffd87828801611ea3565b935050604061200e87828801611e8e565b925050606061201f87828801611ea3565b91505092959194509250565b60006020828403121561203d57600080fd5b600061204b84828501611e79565b91505092915050565b60006020828403121561206657600080fd5b600061207484828501611eb8565b91505092915050565b600080600080600060a0868803121561209557600080fd5b60006120a388828901611ea3565b95505060206120b488828901611ea3565b94505060406120c588828901611ea3565b93505060606120d688828901611ea3565b92505060806120e788828901611dd1565b9150509295509295909350565b6120fd81612533565b82525050565b61210c81612545565b82525050565b61212361211e82612545565b612623565b82525050565b61213a61213582612551565b612635565b82525050565b61214981612585565b82525050565b600061215c602a83612498565b9150612167826126d7565b604082019050919050565b600061217f601c83612498565b915061218a82612726565b602082019050919050565b60006121a2603683612498565b91506121ad8261274f565b604082019050919050565b6121c18161257b565b82525050565b6121d86121d38261257b565b61263f565b82525050565b60006121ea82866121c7565b6020820191506121fa8285612112565b60018201915061220a8284612129565b602082019150819050949350505050565b600060408201905061223060008301856120f4565b61223d60208301846120f4565b9392505050565b600060608201905061225960008301866120f4565b61226660208301856120f4565b61227360408301846121b8565b949350505050565b600060408201905061229060008301856120f4565b61229d60208301846121b8565b9392505050565b60006020820190506122b96000830184612140565b92915050565b600060208201905081810360008301526122d88161214f565b9050919050565b600060208201905081810360008301526122f881612172565b9050919050565b6000602082019050818103600083015261231881612195565b9050919050565b600060208201905061233460008301846121b8565b92915050565b600060608201905061234f60008301866121b8565b61235c60208301856120f4565b61236960408301846121b8565b949350505050565b600061010082019050612387600083018b6121b8565b612394602083018a6121b8565b6123a160408301896121b8565b6123ae60608301886121b8565b6123bb60808301876121b8565b6123c860a08301866121b8565b6123d560c08301856120f4565b6123e260e0830184612103565b9998505050505050505050565b60006123f961240a565b905061240582826125a9565b919050565b6000604051905090565b600067ffffffffffffffff82111561242f5761242e61268a565b5b602082029050602081019050919050565b600067ffffffffffffffff82111561245b5761245a61268a565b5b602082029050602081019050919050565b600067ffffffffffffffff8211156124875761248661268a565b5b602082029050602081019050919050565b600082825260208201905092915050565b60006124b48261257b565b91506124bf8361257b565b9250827fffffffffffffffffffffffffffffffffffffffffffffffffffffffffffffffff038211156124f4576124f361265b565b5b828201905092915050565b600061250a8261257b565b91506125158361257b565b9250828210156125285761252761265b565b5b828203905092915050565b600061253e8261255b565b9050919050565b60008115159050919050565b6000819050919050565b600073ffffffffffffffffffffffffffffffffffffffff82169050919050565b6000819050919050565b600061259082612597565b9050919050565b60006125a28261255b565b9050919050565b6125b2826126b9565b810181811067ffffffffffffffff821117156125d1576125d061268a565b5b80604052505050565b60006125e58261257b565b91507fffffffffffffffffffffffffffffffffffffffffffffffffffffffffffffffff8214156126185761261761265b565b5b600182019050919050565b600061262e82612649565b9050919050565b6000819050919050565b6000819050919050565b6000612654826126ca565b9050919050565b7f4e487b7100000000000000000000000000000000000000000000000000000000600052601160045260246000fd5b7f4e487b7100000000000000000000000000000000000000000000000000000000600052604160045260246000fd5b6000601f19601f8301169050919050565b60008160f81b9050919050565b7f5f616d6f756e74206d7573742062652067726561746572207468616e206d696e60008201527f696d756d5061796f757400000000000000000000000000000000000000000000602082015250565b7f5669636b72657941756374696f6e20686173206e6f7420656e64656400000000600082015250565b7f616c6c6f776564416d6f756e74206d757374206265206772656174657220746860008201527f616e206f7220657175616c20746f205f616d6f756e7400000000000000000000602082015250565b6127a781612533565b81146127b257600080fd5b50565b6127be81612545565b81146127c957600080fd5b50565b6127d581612551565b81146127e057600080fd5b50565b6127ec8161257b565b81146127f757600080fd5b5056fea2646970667358221220eb9ebedae1d122538976e7227e49cf798f36cab9fedf67910e7ad047694279b764736f6c63430008040033",
  "immutableReferences": {},
  "source": "// SPDX-License-Identifier: GPL-3.0\npragma solidity 0.8.4;\n\nimport './IERC20.sol';\n\n// TODO Review all usage of `public`\n// TODO Optimize storage writes with memory\n\ncontract VickreyAuction {\n\n    IERC20 public token;\n\n    // TODO Pack the following struct\n    struct Bid {\n        bytes32 blindedBid;\n        uint deposit;\n        address jobPoster;\n        uint auctionId;\n    }\n\n    /* uint public minimumPayout;\n    uint public biddingDeadline;\n    uint public revealDeadline;\n\n    address public endUser;\n    address public highestBidder;\n    uint public highestBid;\n    uint public secondHighestBid; */\n\n    struct Auction {\n        uint minimumPayout;\n        uint reward;\n        uint biddingDeadline;\n        uint revealDeadline;\n        uint highestBid;\n        uint secondHighestBid;\n        address highestBidder;\n        bool ended;\n    }\n\n    mapping(address => Auction[]) public auctions;\n    mapping(address => Bid[]) bids;\n    mapping(address => uint) staleBids;\n\n    event AuctionEnded(\n        address indexed endUser,\n        uint auctionId,\n        address winner, \n        uint secondHighestBid\n    );\n    /* event BidPlaced(\n        address bidder,\n        uint amount\n    ); */\n\n    error TooEarly(uint time);\n    error TooLate(uint time);\n    error AuctionEndAlreadyCalled();\n\n    modifier onlyBefore(uint _time) {\n        if (block.timestamp >= _time) revert TooLate(_time);\n        _;\n    }\n    modifier onlyAfter(uint _time) {\n        if (block.timestamp <= _time) revert TooEarly(_time);\n        _;\n    }\n\n    // TODO 2 Use `initialize` instead of constructor to make the contract upgradable\n    constructor(\n        IERC20 _token\n    ) {\n        token = _token;\n    }\n\n    // FIXME 1 Right now, `reward` is just parameterized and there is no check,\n    //         in place; to make sure that the `endUser` is good for the funds\n    uint reward;\n\n    // FIXME 1 (continued)\n    // Have end-user actually transfer the funds and then check that the reward amount is equal to it\n    function start(\n        uint _minimumPayout,\n        uint _biddingDeadline,\n        uint _revealDeadline,\n        uint _reward,\n        address _endUser\n    )\n        public\n    {\n        auctions[_endUser].push(Auction({\n            minimumPayout: _minimumPayout,\n            reward: _reward,\n            biddingDeadline: _biddingDeadline,\n            revealDeadline: _revealDeadline,\n            highestBid: 0,\n            secondHighestBid: 0,\n            highestBidder: address(0),\n            ended: false\n        }));\n    }\n\n    function bid(\n        address _endUser,\n        uint _auctionId,\n        bytes32 _blindedBid,\n        uint _amount\n    )\n        public\n        onlyBefore(auctions[_endUser][_auctionId].biddingDeadline)\n    {\n        require(_amount > auctions[_endUser][_auctionId].minimumPayout,'_amount must be greater than minimumPayout');\n        uint allowedAmount = token.allowance(msg.sender,address(this));\n        require(allowedAmount >= _amount,'allowedAmount must be greater than or equal to _amount');\n        // TODO  1.5 Re-factor `transferFrom` to eliminate gas costs?\n        token.transferFrom(msg.sender,address(this),_amount);\n        bids[msg.sender].push(Bid({\n            blindedBid: _blindedBid,\n            deposit: _amount,\n            jobPoster: _endUser,\n            auctionId: _auctionId\n        }));\n    }\n\n    function reveal(\n        address _endUser,\n        uint _auctionId,\n        uint[] memory _amounts,\n        bool[] memory _fake,\n        bytes32[] memory _secret\n    )\n        public\n        onlyAfter(auctions[_endUser][_auctionId].biddingDeadline)\n        onlyBefore(auctions[_endUser][_auctionId].revealDeadline)\n    {\n        uint numberOfBids = bids[msg.sender].length;\n        // TODO Uncomment the follow checks:\n        // require(_amounts.length == numberOfBids,'_amounts.length must be equal to numberOfBids');\n        // require(_fake.length == numberOfBids,'_fake.length must be equal to numberOfBids');\n        // require(_secret.length == numberOfBids,'_secret.length must be equal to numberOfBids');\n        uint refund;\n        for (uint i = 0; i < numberOfBids; i++) {\n            Bid storage bidToCheck = bids[msg.sender][i];\n            if (bidToCheck.jobPoster == _endUser && bidToCheck.auctionId == _auctionId) {\n                (uint amount, bool fake, bytes32 secret) = (_amounts[i], _fake[i], _secret[i]);\n                if (bidToCheck.blindedBid != keccak256(abi.encodePacked(amount, fake, secret))) {\n                    continue;\n                }\n                refund += bidToCheck.deposit;\n                if (!fake && bidToCheck.deposit >= amount) {\n                    if (placeBid(_endUser, _auctionId, msg.sender, amount)) {\n                        refund -= amount;\n                    }\n                }\n                bidToCheck.blindedBid = bytes32(0);\n            }\n        }\n        // TODO 1 Replace the `transfer` invocation with a safer alternative\n        token.transfer(msg.sender,refund);\n    }\n\n    function withdraw() public {\n        uint amount = staleBids[msg.sender];\n        if (amount > 0) {\n            staleBids[msg.sender] = 0;\n            // TODO 1 Replace the `transfer` invocation with a safer alternative\n            token.transfer(msg.sender,amount);\n        }\n    }\n\n    function auctionEnd(\n        address _endUser,\n        uint _auctionId\n    )\n        public\n        onlyAfter(auctions[_endUser][_auctionId].revealDeadline)\n    {\n        if (auctions[_endUser][_auctionId].ended) revert AuctionEndAlreadyCalled();\n        emit AuctionEnded(\n            _endUser,\n            _auctionId,\n            auctions[_endUser][_auctionId].highestBidder,\n            auctions[_endUser][_auctionId].secondHighestBid);\n        auctions[_endUser][_auctionId].ended = true;\n    }\n\n    /// @dev This should be called by `_endUser`\n    function payout(\n        address _endUser,\n        uint _auctionId\n    )\n        public\n    {\n        require(auctions[_endUser][_auctionId].ended, 'VickreyAuction has not ended');\n        // TODO 1 Replace the `transfer` invocation with a safer alternative\n\n        //FIXME\n        token.transfer(_endUser, auctions[_endUser][_auctionId].secondHighestBid);\n        uint leftover = auctions[_endUser][_auctionId].highestBid - auctions[_endUser][_auctionId].secondHighestBid;\n        // TODO n Does `auctions[_endUser][_auctionId].reward` need to be set to `0`, like `amount` is in other places?\n        uint workerPay = leftover + auctions[_endUser][_auctionId].reward;\n        // TODO 4 Optimize the `transfer` of `leftover` to `highestBidder`\n        // TODO 1 Replace the `transfer` invocation with a safer alternative\n        token.transfer(auctions[_endUser][_auctionId].highestBidder, workerPay);\n    }\n\n    function placeBid(\n        address _endUser,\n        uint _auctionId,\n        address _bidder,\n        uint _amount\n    )\n        internal\n        returns (bool success)\n    {\n        if (_amount <= auctions[_endUser][_auctionId].highestBid) {\n            return false;\n        }\n        if (auctions[_endUser][_auctionId].highestBidder != address(0)) {\n            staleBids[auctions[_endUser][_auctionId].highestBidder] += auctions[_endUser][_auctionId].highestBid;\n        }\n        auctions[_endUser][_auctionId].secondHighestBid = auctions[_endUser][_auctionId].highestBid;\n        auctions[_endUser][_auctionId].highestBid = _amount;\n        auctions[_endUser][_auctionId].highestBidder = _bidder;\n        // TODO Possible cruft below\n        /* emit BidPlaced(\n            auctions[_endUser][_auctionId].highestBidder,\n            auctions[_endUser][_auctionId].highestBid); */\n        return true;\n    }\n}\n",
  "sourcePath": "/home/wsladmin/Morphware/service/contracts/VickreyAuction.sol",
  "compiler": {
    "name": "solc",
    "version": "0.8.4+commit.c7e474f2.Emscripten.clang"
  },
  "schemaVersion": "3.4.1",
  "updatedAt": "2021-09-09T19:27:48.879Z",
  "networkType": "ethereum",
  "devdoc": {
    "kind": "dev",
    "methods": {
      "payout(address,uint256)": {
        "details": "This should be called by `_endUser`"
      }
    },
    "version": 1
  },
  "userdoc": {
    "kind": "user",
    "methods": {},
    "version": 1
  }
}