{
  "contractName": "VickreyAuction",
  "abi": [
    {
      "inputs": [
        {
          "internalType": "contract IERC20",
          "name": "_token",
          "type": "address"
        }
      ],
      "stateMutability": "nonpayable",
      "type": "constructor"
    },
    {
      "inputs": [],
      "name": "AuctionEndAlreadyCalled",
      "type": "error"
    },
    {
      "inputs": [
        {
          "internalType": "uint256",
          "name": "time",
          "type": "uint256"
        }
      ],
      "name": "TooEarly",
      "type": "error"
    },
    {
      "inputs": [
        {
          "internalType": "uint256",
          "name": "time",
          "type": "uint256"
        }
      ],
      "name": "TooLate",
      "type": "error"
    },
    {
      "anonymous": false,
      "inputs": [
        {
          "indexed": false,
          "internalType": "address",
          "name": "winner",
          "type": "address"
        },
        {
          "indexed": false,
          "internalType": "uint256",
          "name": "secondHighestBid",
          "type": "uint256"
        }
      ],
      "name": "AuctionEnded",
      "type": "event"
    },
    {
      "anonymous": false,
      "inputs": [
        {
          "indexed": false,
          "internalType": "address",
          "name": "bidder",
          "type": "address"
        },
        {
          "indexed": false,
          "internalType": "uint256",
          "name": "amount",
          "type": "uint256"
        }
      ],
      "name": "BidPlaced",
      "type": "event"
    },
    {
      "inputs": [
        {
          "internalType": "address",
          "name": "",
          "type": "address"
        },
        {
          "internalType": "uint256",
          "name": "",
          "type": "uint256"
        }
      ],
      "name": "auctions",
      "outputs": [
        {
          "internalType": "uint256",
          "name": "minimumPayout",
          "type": "uint256"
        },
        {
          "internalType": "uint256",
          "name": "reward",
          "type": "uint256"
        },
        {
          "internalType": "uint256",
          "name": "biddingDeadline",
          "type": "uint256"
        },
        {
          "internalType": "uint256",
          "name": "revealDeadline",
          "type": "uint256"
        },
        {
          "internalType": "uint256",
          "name": "highestBid",
          "type": "uint256"
        },
        {
          "internalType": "uint256",
          "name": "secondHighestBid",
          "type": "uint256"
        },
        {
          "internalType": "address",
          "name": "highestBidder",
          "type": "address"
        },
        {
          "internalType": "bool",
          "name": "ended",
          "type": "bool"
        }
      ],
      "stateMutability": "view",
      "type": "function",
      "constant": true
    },
    {
      "inputs": [],
      "name": "biddingDeadline",
      "outputs": [
        {
          "internalType": "uint256",
          "name": "",
          "type": "uint256"
        }
      ],
      "stateMutability": "view",
      "type": "function",
      "constant": true
    },
    {
      "inputs": [],
      "name": "endUser",
      "outputs": [
        {
          "internalType": "address",
          "name": "",
          "type": "address"
        }
      ],
      "stateMutability": "view",
      "type": "function",
      "constant": true
    },
    {
      "inputs": [],
      "name": "highestBid",
      "outputs": [
        {
          "internalType": "uint256",
          "name": "",
          "type": "uint256"
        }
      ],
      "stateMutability": "view",
      "type": "function",
      "constant": true
    },
    {
      "inputs": [],
      "name": "highestBidder",
      "outputs": [
        {
          "internalType": "address",
          "name": "",
          "type": "address"
        }
      ],
      "stateMutability": "view",
      "type": "function",
      "constant": true
    },
    {
      "inputs": [],
      "name": "minimumPayout",
      "outputs": [
        {
          "internalType": "uint256",
          "name": "",
          "type": "uint256"
        }
      ],
      "stateMutability": "view",
      "type": "function",
      "constant": true
    },
    {
      "inputs": [],
      "name": "revealDeadline",
      "outputs": [
        {
          "internalType": "uint256",
          "name": "",
          "type": "uint256"
        }
      ],
      "stateMutability": "view",
      "type": "function",
      "constant": true
    },
    {
      "inputs": [],
      "name": "secondHighestBid",
      "outputs": [
        {
          "internalType": "uint256",
          "name": "",
          "type": "uint256"
        }
      ],
      "stateMutability": "view",
      "type": "function",
      "constant": true
    },
    {
      "inputs": [],
      "name": "token",
      "outputs": [
        {
          "internalType": "contract IERC20",
          "name": "",
          "type": "address"
        }
      ],
      "stateMutability": "view",
      "type": "function",
      "constant": true
    },
    {
      "inputs": [
        {
          "internalType": "uint256",
          "name": "_minimumPayout",
          "type": "uint256"
        },
        {
          "internalType": "uint256",
          "name": "_biddingTimeSpan",
          "type": "uint256"
        },
        {
          "internalType": "uint256",
          "name": "_revealTimeSpan",
          "type": "uint256"
        },
        {
          "internalType": "uint256",
          "name": "_reward",
          "type": "uint256"
        },
        {
          "internalType": "address",
          "name": "_endUser",
          "type": "address"
        }
      ],
      "name": "start",
      "outputs": [],
      "stateMutability": "nonpayable",
      "type": "function"
    },
    {
      "inputs": [
        {
          "internalType": "address",
          "name": "_endUser",
          "type": "address"
        },
        {
          "internalType": "uint256",
          "name": "_auctionId",
          "type": "uint256"
        },
        {
          "internalType": "bytes32",
          "name": "_blindedBid",
          "type": "bytes32"
        },
        {
          "internalType": "uint256",
          "name": "_amount",
          "type": "uint256"
        }
      ],
      "name": "bid",
      "outputs": [],
      "stateMutability": "nonpayable",
      "type": "function"
    },
    {
      "inputs": [
        {
          "internalType": "address",
          "name": "_endUser",
          "type": "address"
        },
        {
          "internalType": "uint256",
          "name": "_auctionId",
          "type": "uint256"
        },
        {
          "internalType": "uint256[]",
          "name": "_amounts",
          "type": "uint256[]"
        },
        {
          "internalType": "bool[]",
          "name": "_fake",
          "type": "bool[]"
        },
        {
          "internalType": "bytes32[]",
          "name": "_secret",
          "type": "bytes32[]"
        }
      ],
      "name": "reveal",
      "outputs": [],
      "stateMutability": "nonpayable",
      "type": "function"
    },
    {
      "inputs": [],
      "name": "withdraw",
      "outputs": [],
      "stateMutability": "nonpayable",
      "type": "function"
    },
    {
      "inputs": [
        {
          "internalType": "address",
          "name": "_endUser",
          "type": "address"
        },
        {
          "internalType": "uint256",
          "name": "_auctionId",
          "type": "uint256"
        }
      ],
      "name": "auctionEnd",
      "outputs": [],
      "stateMutability": "nonpayable",
      "type": "function"
    },
    {
      "inputs": [
        {
          "internalType": "address",
          "name": "_endUser",
          "type": "address"
        },
        {
          "internalType": "uint256",
          "name": "_auctionId",
          "type": "uint256"
        }
      ],
      "name": "payout",
      "outputs": [],
      "stateMutability": "nonpayable",
      "type": "function"
    }
  ],
  "bytecode": "0x60806040523480156200001157600080fd5b5060405162002ba438038062002ba4833981810160405281019062000037919062000095565b806000806101000a81548173ffffffffffffffffffffffffffffffffffffffff021916908373ffffffffffffffffffffffffffffffffffffffff1602179055505062000123565b6000815190506200008f8162000109565b92915050565b600060208284031215620000a857600080fd5b6000620000b8848285016200007e565b91505092915050565b6000620000ce82620000e9565b9050919050565b6000620000e282620000c1565b9050919050565b600073ffffffffffffffffffffffffffffffffffffffff82169050919050565b6200011481620000d5565b81146200012057600080fd5b50565b612a7180620001336000396000f3fe608060405234801561001057600080fd5b50600436106100f55760003560e01c806344f91c1e11610097578063c56114c611610066578063c56114c614610243578063d57bde791461025f578063e94a900e1461027d578063fc0c546a14610299576100f5565b806344f91c1e146101b257806391f90157146101e9578063acb902f614610207578063b14b28a314610225576100f5565b80631dcf249f116100d35780631dcf249f146101525780631e78cfe11461016e578063290a2d101461018c5780633ccfd60b146101a8576100f5565b8063028d4e44146100fa5780630fd388d314610118578063117de2fd14610136575b600080fd5b6101026102b7565b60405161010f9190612478565b60405180910390f35b6101206102dd565b60405161012d9190612597565b60405180910390f35b610150600480360381019061014b919061212a565b6102e3565b005b61016c6004803603810190610167919061212a565b610802565b005b610176610bab565b6040516101839190612597565b60405180910390f35b6101a660048036038101906101a19190612166565b610bb1565b005b6101b061106c565b005b6101cc60048036038101906101c7919061212a565b6111b0565b6040516101e09897969594939291906125b2565b60405180910390f35b6101f1611242565b6040516101fe9190612478565b60405180910390f35b61020f611268565b60405161021c9190612597565b60405180910390f35b61022d61126e565b60405161023a9190612597565b60405180910390f35b61025d600480360381019061025891906122da565b611274565b005b6102676113ff565b6040516102749190612597565b60405180910390f35b61029760048036038101906102929190612225565b611405565b005b6102a16117ea565b6040516102ae919061251c565b60405180910390f35b600460009054906101000a900473ffffffffffffffffffffffffffffffffffffffff1681565b60025481565b600860008373ffffffffffffffffffffffffffffffffffffffff1673ffffffffffffffffffffffffffffffffffffffff168152602001908152602001600020818154811061035a577f4e487b7100000000000000000000000000000000000000000000000000000000600052603260045260246000fd5b906000526020600020906007020160060160149054906101000a900460ff166103b8576040517f08c379a00000000000000000000000000000000000000000000000000000000081526004016103af90612557565b60405180910390fd5b60008054906101000a900473ffffffffffffffffffffffffffffffffffffffff1673ffffffffffffffffffffffffffffffffffffffff1663a9059cbb83600860008673ffffffffffffffffffffffffffffffffffffffff1673ffffffffffffffffffffffffffffffffffffffff168152602001908152602001600020848154811061046c577f4e487b7100000000000000000000000000000000000000000000000000000000600052603260045260246000fd5b9060005260206000209060070201600501546040518363ffffffff1660e01b815260040161049b9291906124f3565b602060405180830381600087803b1580156104b557600080fd5b505af11580156104c9573d6000803e3d6000fd5b505050506040513d601f19601f820116820180604052508101906104ed9190612288565b506000600860008473ffffffffffffffffffffffffffffffffffffffff1673ffffffffffffffffffffffffffffffffffffffff1681526020019081526020016000208281548110610567577f4e487b7100000000000000000000000000000000000000000000000000000000600052603260045260246000fd5b906000526020600020906007020160050154600860008573ffffffffffffffffffffffffffffffffffffffff1673ffffffffffffffffffffffffffffffffffffffff16815260200190815260200160002083815481106105f0577f4e487b7100000000000000000000000000000000000000000000000000000000600052603260045260246000fd5b90600052602060002090600702016004015461060c9190612740565b90506000600860008573ffffffffffffffffffffffffffffffffffffffff1673ffffffffffffffffffffffffffffffffffffffff1681526020019081526020016000208381548110610687577f4e487b7100000000000000000000000000000000000000000000000000000000600052603260045260246000fd5b906000526020600020906007020160010154826106a491906126ea565b905060008054906101000a900473ffffffffffffffffffffffffffffffffffffffff1673ffffffffffffffffffffffffffffffffffffffff1663a9059cbb600860008773ffffffffffffffffffffffffffffffffffffffff1673ffffffffffffffffffffffffffffffffffffffff1681526020019081526020016000208581548110610759577f4e487b7100000000000000000000000000000000000000000000000000000000600052603260045260246000fd5b906000526020600020906007020160060160009054906101000a900473ffffffffffffffffffffffffffffffffffffffff16836040518363ffffffff1660e01b81526004016107a99291906124f3565b602060405180830381600087803b1580156107c357600080fd5b505af11580156107d7573d6000803e3d6000fd5b505050506040513d601f19601f820116820180604052508101906107fb9190612288565b5050505050565b600860008373ffffffffffffffffffffffffffffffffffffffff1673ffffffffffffffffffffffffffffffffffffffff1681526020019081526020016000208181548110610879577f4e487b7100000000000000000000000000000000000000000000000000000000600052603260045260246000fd5b9060005260206000209060070201600301548042116108cf57806040517f2a35a3240000000000000000000000000000000000000000000000000000000081526004016108c69190612597565b60405180910390fd5b600860008473ffffffffffffffffffffffffffffffffffffffff1673ffffffffffffffffffffffffffffffffffffffff1681526020019081526020016000208281548110610946577f4e487b7100000000000000000000000000000000000000000000000000000000600052603260045260246000fd5b906000526020600020906007020160060160149054906101000a900460ff161561099c576040517f61cfdcf800000000000000000000000000000000000000000000000000000000815260040160405180910390fd5b7fdaec4582d5d9595688c8c98545fdd1c696d41c6aeaeb636737e84ed2f5c00eda600860008573ffffffffffffffffffffffffffffffffffffffff1673ffffffffffffffffffffffffffffffffffffffff1681526020019081526020016000208381548110610a34577f4e487b7100000000000000000000000000000000000000000000000000000000600052603260045260246000fd5b906000526020600020906007020160060160009054906101000a900473ffffffffffffffffffffffffffffffffffffffff16600860008673ffffffffffffffffffffffffffffffffffffffff1673ffffffffffffffffffffffffffffffffffffffff1681526020019081526020016000208481548110610add577f4e487b7100000000000000000000000000000000000000000000000000000000600052603260045260246000fd5b906000526020600020906007020160050154604051610afd9291906124f3565b60405180910390a16001600860008573ffffffffffffffffffffffffffffffffffffffff1673ffffffffffffffffffffffffffffffffffffffff1681526020019081526020016000208381548110610b7e577f4e487b7100000000000000000000000000000000000000000000000000000000600052603260045260246000fd5b906000526020600020906007020160060160146101000a81548160ff021916908315150217905550505050565b60015481565b600860008673ffffffffffffffffffffffffffffffffffffffff1673ffffffffffffffffffffffffffffffffffffffff1681526020019081526020016000208481548110610c28577f4e487b7100000000000000000000000000000000000000000000000000000000600052603260045260246000fd5b906000526020600020906007020160020154804211610c7e57806040517f2a35a324000000000000000000000000000000000000000000000000000000008152600401610c759190612597565b60405180910390fd5b600860008773ffffffffffffffffffffffffffffffffffffffff1673ffffffffffffffffffffffffffffffffffffffff1681526020019081526020016000208581548110610cf5577f4e487b7100000000000000000000000000000000000000000000000000000000600052603260045260246000fd5b906000526020600020906007020160030154804210610d4b57806040517f691e5682000000000000000000000000000000000000000000000000000000008152600401610d429190612597565b60405180910390fd5b6000600960003373ffffffffffffffffffffffffffffffffffffffff1673ffffffffffffffffffffffffffffffffffffffff168152602001908152602001600020805490509050600080600090505b82811015610fb2576000600960003373ffffffffffffffffffffffffffffffffffffffff1673ffffffffffffffffffffffffffffffffffffffff1681526020019081526020016000208281548110610e1b577f4e487b7100000000000000000000000000000000000000000000000000000000600052603260045260246000fd5b906000526020600020906003020190508981600201541415610f9d5760008060008b8581518110610e75577f4e487b7100000000000000000000000000000000000000000000000000000000600052603260045260246000fd5b60200260200101518b8681518110610eb6577f4e487b7100000000000000000000000000000000000000000000000000000000600052603260045260246000fd5b60200260200101518b8781518110610ef7577f4e487b7100000000000000000000000000000000000000000000000000000000600052603260045260246000fd5b6020026020010151925092509250828282604051602001610f1a9392919061243b565b60405160208183030381529060405280519060200120846000015414610f435750505050610f9f565b836001015486610f5391906126ea565b955081158015610f67575082846001015410155b15610f8d57610f788e8e338661180e565b15610f8c578286610f899190612740565b95505b5b6000801b84600001819055505050505b505b8080610faa9061281b565b915050610d9a565b5060008054906101000a900473ffffffffffffffffffffffffffffffffffffffff1673ffffffffffffffffffffffffffffffffffffffff1663a9059cbb33836040518363ffffffff1660e01b815260040161100e9291906124f3565b602060405180830381600087803b15801561102857600080fd5b505af115801561103c573d6000803e3d6000fd5b505050506040513d601f19601f820116820180604052508101906110609190612288565b50505050505050505050565b6000600a60003373ffffffffffffffffffffffffffffffffffffffff1673ffffffffffffffffffffffffffffffffffffffff16815260200190815260200160002054905060008111156111ad576000600a60003373ffffffffffffffffffffffffffffffffffffffff1673ffffffffffffffffffffffffffffffffffffffff1681526020019081526020016000208190555060008054906101000a900473ffffffffffffffffffffffffffffffffffffffff1673ffffffffffffffffffffffffffffffffffffffff1663a9059cbb33836040518363ffffffff1660e01b81526004016111599291906124f3565b602060405180830381600087803b15801561117357600080fd5b505af1158015611187573d6000803e3d6000fd5b505050506040513d601f19601f820116820180604052508101906111ab9190612288565b505b50565b600860205281600052604060002081815481106111cc57600080fd5b9060005260206000209060070201600091509150508060000154908060010154908060020154908060030154908060040154908060050154908060060160009054906101000a900473ffffffffffffffffffffffffffffffffffffffff16908060060160149054906101000a900460ff16905088565b600560009054906101000a900473ffffffffffffffffffffffffffffffffffffffff1681565b60075481565b60035481565b600860008273ffffffffffffffffffffffffffffffffffffffff1673ffffffffffffffffffffffffffffffffffffffff16815260200190815260200160002060405180610100016040528087815260200184815260200186426112d791906126ea565b81526020018587426112e991906126ea565b6112f391906126ea565b81526020016000815260200160008152602001600073ffffffffffffffffffffffffffffffffffffffff168152602001600015158152509080600181540180825580915050600190039060005260206000209060070201600090919091909150600082015181600001556020820151816001015560408201518160020155606082015181600301556080820151816004015560a0820151816005015560c08201518160060160006101000a81548173ffffffffffffffffffffffffffffffffffffffff021916908373ffffffffffffffffffffffffffffffffffffffff16021790555060e08201518160060160146101000a81548160ff02191690831515021790555050505050505050565b60065481565b600860008573ffffffffffffffffffffffffffffffffffffffff1673ffffffffffffffffffffffffffffffffffffffff168152602001908152602001600020838154811061147c577f4e487b7100000000000000000000000000000000000000000000000000000000600052603260045260246000fd5b9060005260206000209060070201600201548042106114d257806040517f691e56820000000000000000000000000000000000000000000000000000000081526004016114c99190612597565b60405180910390fd5b600860008673ffffffffffffffffffffffffffffffffffffffff1673ffffffffffffffffffffffffffffffffffffffff1681526020019081526020016000208481548110611549577f4e487b7100000000000000000000000000000000000000000000000000000000600052603260045260246000fd5b906000526020600020906007020160000154821161159c576040517f08c379a000000000000000000000000000000000000000000000000000000000815260040161159390612537565b60405180910390fd5b60008060009054906101000a900473ffffffffffffffffffffffffffffffffffffffff1673ffffffffffffffffffffffffffffffffffffffff1663dd62ed3e33306040518363ffffffff1660e01b81526004016115fa929190612493565b60206040518083038186803b15801561161257600080fd5b505afa158015611626573d6000803e3d6000fd5b505050506040513d601f19601f8201168201806040525081019061164a91906122b1565b90508281101561168f576040517f08c379a000000000000000000000000000000000000000000000000000000000815260040161168690612577565b60405180910390fd5b60008054906101000a900473ffffffffffffffffffffffffffffffffffffffff1673ffffffffffffffffffffffffffffffffffffffff166323b872dd3330866040518463ffffffff1660e01b81526004016116ec939291906124bc565b602060405180830381600087803b15801561170657600080fd5b505af115801561171a573d6000803e3d6000fd5b505050506040513d601f19601f8201168201806040525081019061173e9190612288565b50600960003373ffffffffffffffffffffffffffffffffffffffff1673ffffffffffffffffffffffffffffffffffffffff16815260200190815260200160002060405180606001604052808681526020018581526020018781525090806001815401808255809150506001900390600052602060002090600302016000909190919091506000820151816000015560208201518160010155604082015181600201555050505050505050565b60008054906101000a900473ffffffffffffffffffffffffffffffffffffffff1681565b6000600860008673ffffffffffffffffffffffffffffffffffffffff1673ffffffffffffffffffffffffffffffffffffffff1681526020019081526020016000208481548110611887577f4e487b7100000000000000000000000000000000000000000000000000000000600052603260045260246000fd5b90600052602060002090600702016004015482116118a85760009050611ee2565b600073ffffffffffffffffffffffffffffffffffffffff16600860008773ffffffffffffffffffffffffffffffffffffffff1673ffffffffffffffffffffffffffffffffffffffff1681526020019081526020016000208581548110611937577f4e487b7100000000000000000000000000000000000000000000000000000000600052603260045260246000fd5b906000526020600020906007020160060160009054906101000a900473ffffffffffffffffffffffffffffffffffffffff1673ffffffffffffffffffffffffffffffffffffffff1614611b0b57600860008673ffffffffffffffffffffffffffffffffffffffff1673ffffffffffffffffffffffffffffffffffffffff16815260200190815260200160002084815481106119fb577f4e487b7100000000000000000000000000000000000000000000000000000000600052603260045260246000fd5b906000526020600020906007020160040154600a6000600860008973ffffffffffffffffffffffffffffffffffffffff1673ffffffffffffffffffffffffffffffffffffffff1681526020019081526020016000208781548110611a88577f4e487b7100000000000000000000000000000000000000000000000000000000600052603260045260246000fd5b906000526020600020906007020160060160009054906101000a900473ffffffffffffffffffffffffffffffffffffffff1673ffffffffffffffffffffffffffffffffffffffff1673ffffffffffffffffffffffffffffffffffffffff1681526020019081526020016000206000828254611b0391906126ea565b925050819055505b600860008673ffffffffffffffffffffffffffffffffffffffff1673ffffffffffffffffffffffffffffffffffffffff1681526020019081526020016000208481548110611b82577f4e487b7100000000000000000000000000000000000000000000000000000000600052603260045260246000fd5b906000526020600020906007020160040154600860008773ffffffffffffffffffffffffffffffffffffffff1673ffffffffffffffffffffffffffffffffffffffff1681526020019081526020016000208581548110611c0b577f4e487b7100000000000000000000000000000000000000000000000000000000600052603260045260246000fd5b90600052602060002090600702016005018190555081600860008773ffffffffffffffffffffffffffffffffffffffff1673ffffffffffffffffffffffffffffffffffffffff1681526020019081526020016000208581548110611c98577f4e487b7100000000000000000000000000000000000000000000000000000000600052603260045260246000fd5b90600052602060002090600702016004018190555082600860008773ffffffffffffffffffffffffffffffffffffffff1673ffffffffffffffffffffffffffffffffffffffff1681526020019081526020016000208581548110611d25577f4e487b7100000000000000000000000000000000000000000000000000000000600052603260045260246000fd5b906000526020600020906007020160060160006101000a81548173ffffffffffffffffffffffffffffffffffffffff021916908373ffffffffffffffffffffffffffffffffffffffff1602179055507f3fabff0a9c3ecd6814702e247fa9733e5d0aa69e3a38590f92cb18f623a2254d600860008773ffffffffffffffffffffffffffffffffffffffff1673ffffffffffffffffffffffffffffffffffffffff1681526020019081526020016000208581548110611e0c577f4e487b7100000000000000000000000000000000000000000000000000000000600052603260045260246000fd5b906000526020600020906007020160060160009054906101000a900473ffffffffffffffffffffffffffffffffffffffff16600860008873ffffffffffffffffffffffffffffffffffffffff1673ffffffffffffffffffffffffffffffffffffffff1681526020019081526020016000208681548110611eb5577f4e487b7100000000000000000000000000000000000000000000000000000000600052603260045260246000fd5b906000526020600020906007020160040154604051611ed59291906124f3565b60405180910390a1600190505b949350505050565b6000611efd611ef884612655565b612630565b90508083825260208201905082856020860282011115611f1c57600080fd5b60005b85811015611f4c5781611f3288826120c1565b845260208401935060208301925050600181019050611f1f565b5050509392505050565b6000611f69611f6484612681565b612630565b90508083825260208201905082856020860282011115611f8857600080fd5b60005b85811015611fb85781611f9e88826120eb565b845260208401935060208301925050600181019050611f8b565b5050509392505050565b6000611fd5611fd0846126ad565b612630565b90508083825260208201905082856020860282011115611ff457600080fd5b60005b85811015612024578161200a8882612100565b845260208401935060208301925050600181019050611ff7565b5050509392505050565b60008135905061203d816129df565b92915050565b600082601f83011261205457600080fd5b8135612064848260208601611eea565b91505092915050565b600082601f83011261207e57600080fd5b813561208e848260208601611f56565b91505092915050565b600082601f8301126120a857600080fd5b81356120b8848260208601611fc2565b91505092915050565b6000813590506120d0816129f6565b92915050565b6000815190506120e5816129f6565b92915050565b6000813590506120fa81612a0d565b92915050565b60008135905061210f81612a24565b92915050565b60008151905061212481612a24565b92915050565b6000806040838503121561213d57600080fd5b600061214b8582860161202e565b925050602061215c85828601612100565b9150509250929050565b600080600080600060a0868803121561217e57600080fd5b600061218c8882890161202e565b955050602061219d88828901612100565b945050604086013567ffffffffffffffff8111156121ba57600080fd5b6121c688828901612097565b935050606086013567ffffffffffffffff8111156121e357600080fd5b6121ef88828901612043565b925050608086013567ffffffffffffffff81111561220c57600080fd5b6122188882890161206d565b9150509295509295909350565b6000806000806080858703121561223b57600080fd5b60006122498782880161202e565b945050602061225a87828801612100565b935050604061226b878288016120eb565b925050606061227c87828801612100565b91505092959194509250565b60006020828403121561229a57600080fd5b60006122a8848285016120d6565b91505092915050565b6000602082840312156122c357600080fd5b60006122d184828501612115565b91505092915050565b600080600080600060a086880312156122f257600080fd5b600061230088828901612100565b955050602061231188828901612100565b945050604061232288828901612100565b935050606061233388828901612100565b92505060806123448882890161202e565b9150509295509295909350565b61235a81612774565b82525050565b61236981612786565b82525050565b61238061237b82612786565b612864565b82525050565b61239761239282612792565b612876565b82525050565b6123a6816127c6565b82525050565b60006123b9602a836126d9565b91506123c482612918565b604082019050919050565b60006123dc601c836126d9565b91506123e782612967565b602082019050919050565b60006123ff6036836126d9565b915061240a82612990565b604082019050919050565b61241e816127bc565b82525050565b612435612430826127bc565b612880565b82525050565b60006124478286612424565b602082019150612457828561236f565b6001820191506124678284612386565b602082019150819050949350505050565b600060208201905061248d6000830184612351565b92915050565b60006040820190506124a86000830185612351565b6124b56020830184612351565b9392505050565b60006060820190506124d16000830186612351565b6124de6020830185612351565b6124eb6040830184612415565b949350505050565b60006040820190506125086000830185612351565b6125156020830184612415565b9392505050565b6000602082019050612531600083018461239d565b92915050565b60006020820190508181036000830152612550816123ac565b9050919050565b60006020820190508181036000830152612570816123cf565b9050919050565b60006020820190508181036000830152612590816123f2565b9050919050565b60006020820190506125ac6000830184612415565b92915050565b6000610100820190506125c8600083018b612415565b6125d5602083018a612415565b6125e26040830189612415565b6125ef6060830188612415565b6125fc6080830187612415565b61260960a0830186612415565b61261660c0830185612351565b61262360e0830184612360565b9998505050505050505050565b600061263a61264b565b905061264682826127ea565b919050565b6000604051905090565b600067ffffffffffffffff8211156126705761266f6128cb565b5b602082029050602081019050919050565b600067ffffffffffffffff82111561269c5761269b6128cb565b5b602082029050602081019050919050565b600067ffffffffffffffff8211156126c8576126c76128cb565b5b602082029050602081019050919050565b600082825260208201905092915050565b60006126f5826127bc565b9150612700836127bc565b9250827fffffffffffffffffffffffffffffffffffffffffffffffffffffffffffffffff038211156127355761273461289c565b5b828201905092915050565b600061274b826127bc565b9150612756836127bc565b9250828210156127695761276861289c565b5b828203905092915050565b600061277f8261279c565b9050919050565b60008115159050919050565b6000819050919050565b600073ffffffffffffffffffffffffffffffffffffffff82169050919050565b6000819050919050565b60006127d1826127d8565b9050919050565b60006127e38261279c565b9050919050565b6127f3826128fa565b810181811067ffffffffffffffff82111715612812576128116128cb565b5b80604052505050565b6000612826826127bc565b91507fffffffffffffffffffffffffffffffffffffffffffffffffffffffffffffffff8214156128595761285861289c565b5b600182019050919050565b600061286f8261288a565b9050919050565b6000819050919050565b6000819050919050565b60006128958261290b565b9050919050565b7f4e487b7100000000000000000000000000000000000000000000000000000000600052601160045260246000fd5b7f4e487b7100000000000000000000000000000000000000000000000000000000600052604160045260246000fd5b6000601f19601f8301169050919050565b60008160f81b9050919050565b7f5f616d6f756e74206d7573742062652067726561746572207468616e206d696e60008201527f696d756d5061796f757400000000000000000000000000000000000000000000602082015250565b7f5669636b72657941756374696f6e20686173206e6f7420656e64656400000000600082015250565b7f616c6c6f776564416d6f756e74206d757374206265206772656174657220746860008201527f616e206f7220657175616c20746f205f616d6f756e7400000000000000000000602082015250565b6129e881612774565b81146129f357600080fd5b50565b6129ff81612786565b8114612a0a57600080fd5b50565b612a1681612792565b8114612a2157600080fd5b50565b612a2d816127bc565b8114612a3857600080fd5b5056fea2646970667358221220e0b04a1bf108c963378a7f75b3c8748d9c80b370e7e677873da3e5dc2ab28a6164736f6c63430008040033",
  "immutableReferences": {},
  "source": "// SPDX-License-Identifier: GPL-3.0\npragma solidity 0.8.4;\n\nimport './IERC20.sol';\n\n// TODO Review all usage of `public`\n// TODO Optimize storage writes with memory\n\ncontract VickreyAuction {\n\n    IERC20 public token;\n\n    struct Bid {\n        bytes32 blindedBid;\n        uint deposit;\n        uint auctionId;\n    }\n\n    uint public minimumPayout;\n    uint public biddingDeadline;\n    uint public revealDeadline;\n\n    address public endUser;\n    address public highestBidder;\n    uint public highestBid;\n    uint public secondHighestBid;\n\n    struct Auction {\n        uint minimumPayout;\n        uint reward;\n        uint biddingDeadline;\n        uint revealDeadline;\n        uint highestBid;\n        uint secondHighestBid;\n        address highestBidder;\n        bool ended;\n    }\n\n    mapping(address => Auction[]) public auctions;\n\n    mapping(address => Bid[]) bids;\n    mapping(address => uint) staleBids;\n\n    event AuctionEnded(address winner, uint secondHighestBid);\n    event BidPlaced(address bidder, uint amount);\n\n    error TooEarly(uint time);\n    error TooLate(uint time);\n    error AuctionEndAlreadyCalled();\n\n    modifier onlyBefore(uint _time) {\n        if (block.timestamp >= _time) revert TooLate(_time);\n        _;\n    }\n    modifier onlyAfter(uint _time) {\n        if (block.timestamp <= _time) revert TooEarly(_time);\n        _;\n    }\n\n    // TODO 2 Use `initialize` instead of constructor to make the contract upgradable\n    constructor(\n        IERC20 _token\n    ) {\n        token = _token;\n    }\n\n    // FIXME 1 Right now, `reward` is just parameterized and there is no check,\n    //         in place; to make sure that the `endUser` is good for the funds\n    uint reward;\n\n    // FIXME 1 (continued)\n    // Have end-user actually transfer the funds and then check that the reward amount is equal to it\n    function start(\n        uint _minimumPayout,\n        uint _biddingTimeSpan,\n        uint _revealTimeSpan,\n        uint _reward,\n        address _endUser\n    )\n        public\n    {\n        auctions[_endUser].push(Auction({\n            minimumPayout: _minimumPayout,\n            reward: _reward,\n            biddingDeadline: block.timestamp + _biddingTimeSpan,\n            revealDeadline: block.timestamp + _biddingTimeSpan + _revealTimeSpan,\n            highestBid: 0,\n            secondHighestBid: 0,\n            highestBidder: address(0),\n            ended: false\n        }));\n    }\n\n    function bid(\n        address _endUser,\n        uint _auctionId,\n        bytes32 _blindedBid,\n        uint _amount\n    )\n        public\n        onlyBefore(auctions[_endUser][_auctionId].biddingDeadline)\n    {\n        require(_amount > auctions[_endUser][_auctionId].minimumPayout,'_amount must be greater than minimumPayout');\n        uint allowedAmount = token.allowance(msg.sender,address(this));\n        require(allowedAmount >= _amount,'allowedAmount must be greater than or equal to _amount');\n        // TODO  1.5 Re-factor `transferFrom` to eliminate gas costs?\n        token.transferFrom(msg.sender,address(this),_amount);\n        bids[msg.sender].push(Bid({\n            blindedBid: _blindedBid,\n            deposit: _amount,\n            auctionId: _auctionId\n        }));\n    }\n\n    function reveal(\n        address _endUser,\n        uint _auctionId,\n        uint[] memory _amounts,\n        bool[] memory _fake,\n        bytes32[] memory _secret\n    )\n        public\n        onlyAfter(auctions[_endUser][_auctionId].biddingDeadline)\n        onlyBefore(auctions[_endUser][_auctionId].revealDeadline)\n    {\n        uint numberOfBids = bids[msg.sender].length;\n        // require(_amounts.length == numberOfBids,'_amounts.length must be equal to numberOfBids');\n        // require(_fake.length == numberOfBids,'_fake.length must be equal to numberOfBids');\n        // require(_secret.length == numberOfBids,'_secret.length must be equal to numberOfBids');\n        uint refund;\n        for (uint i = 0; i < numberOfBids; i++) {\n            Bid storage bidToCheck = bids[msg.sender][i];\n            if (bidToCheck.auctionId == _auctionId) {\n                (uint amount, bool fake, bytes32 secret) = (_amounts[i], _fake[i], _secret[i]);\n                if (bidToCheck.blindedBid != keccak256(abi.encodePacked(amount, fake, secret))) {\n                    continue;\n                }\n                refund += bidToCheck.deposit;\n                if (!fake && bidToCheck.deposit >= amount) {\n                    if (placeBid(_endUser, _auctionId, msg.sender, amount)) {\n                        refund -= amount;\n                    }\n                }\n                bidToCheck.blindedBid = bytes32(0);\n            }\n        }\n        // TODO 1 Replace the `transfer` invocation with a safer alternative\n        token.transfer(msg.sender,refund);\n    }\n\n    function withdraw() public {\n        uint amount = staleBids[msg.sender];\n        if (amount > 0) {\n            staleBids[msg.sender] = 0;\n            // TODO 1 Replace the `transfer` invocation with a safer alternative\n            token.transfer(msg.sender,amount);\n        }\n    }\n\n    function auctionEnd(\n        address _endUser,\n        uint _auctionId\n    )\n        public\n        onlyAfter(auctions[_endUser][_auctionId].revealDeadline)\n    {\n        if (auctions[_endUser][_auctionId].ended) revert AuctionEndAlreadyCalled();\n        emit AuctionEnded(\n            auctions[_endUser][_auctionId].highestBidder,\n            auctions[_endUser][_auctionId].secondHighestBid);\n        auctions[_endUser][_auctionId].ended = true;\n    }\n\n    /// @dev This should be called by `_endUser`\n    function payout(\n        address _endUser,\n        uint _auctionId\n    )\n        public\n    {\n        require(auctions[_endUser][_auctionId].ended, 'VickreyAuction has not ended');\n        // TODO 1 Replace the `transfer` invocation with a safer alternative\n\n        //FIXME\n        token.transfer(_endUser, auctions[_endUser][_auctionId].secondHighestBid);\n        uint leftover = auctions[_endUser][_auctionId].highestBid - auctions[_endUser][_auctionId].secondHighestBid;\n        // TODO n Does `auctions[_endUser][_auctionId].reward` need to be set to `0`, like `amount` is in other places?\n        uint workerPay = leftover + auctions[_endUser][_auctionId].reward;\n        // TODO 4 Optimize the `transfer` of `leftover` to `highestBidder`\n        // TODO 1 Replace the `transfer` invocation with a safer alternative\n        token.transfer(auctions[_endUser][_auctionId].highestBidder, workerPay);\n    }\n\n    function placeBid(\n        address _endUser,\n        uint _auctionId,\n        address _bidder,\n        uint _amount\n    )\n        internal\n        returns (bool success)\n    {\n        if (_amount <= auctions[_endUser][_auctionId].highestBid) {\n            return false;\n        }\n        if (auctions[_endUser][_auctionId].highestBidder != address(0)) {\n            staleBids[auctions[_endUser][_auctionId].highestBidder] += auctions[_endUser][_auctionId].highestBid;\n        }\n        auctions[_endUser][_auctionId].secondHighestBid = auctions[_endUser][_auctionId].highestBid;\n        auctions[_endUser][_auctionId].highestBid = _amount;\n        auctions[_endUser][_auctionId].highestBidder = _bidder;\n        emit BidPlaced(\n            auctions[_endUser][_auctionId].highestBidder,\n            auctions[_endUser][_auctionId].highestBid);\n        return true;\n    }\n}\n",
  "sourcePath": "/home/wsladmin/Morphware/learn/contracts/VickreyAuction.sol",
  "compiler": {
    "name": "solc",
    "version": "0.8.4+commit.c7e474f2.Emscripten.clang"
  },
  "schemaVersion": "3.4.1",
  "updatedAt": "2021-06-08T14:56:42.379Z",
  "networkType": "ethereum",
  "devdoc": {
    "kind": "dev",
    "methods": {
      "payout(address,uint256)": {
        "details": "This should be called by `_endUser`"
      }
    },
    "version": 1
  },
  "userdoc": {
    "kind": "user",
    "methods": {},
    "version": 1
  }
}