{
  "contractName": "VickreyAuction",
  "abi": [
    {
      "inputs": [
        {
          "internalType": "contract IERC20",
          "name": "_token",
          "type": "address"
        }
      ],
      "stateMutability": "nonpayable",
      "type": "constructor"
    },
    {
      "inputs": [],
      "name": "AuctionEndAlreadyCalled",
      "type": "error"
    },
    {
      "inputs": [
        {
          "internalType": "uint256",
          "name": "time",
          "type": "uint256"
        }
      ],
      "name": "TooEarly",
      "type": "error"
    },
    {
      "inputs": [
        {
          "internalType": "uint256",
          "name": "time",
          "type": "uint256"
        }
      ],
      "name": "TooLate",
      "type": "error"
    },
    {
      "anonymous": false,
      "inputs": [
        {
          "indexed": true,
          "internalType": "address",
          "name": "endUser",
          "type": "address"
        },
        {
          "indexed": false,
          "internalType": "uint256",
          "name": "auctionId",
          "type": "uint256"
        },
        {
          "indexed": false,
          "internalType": "address",
          "name": "winner",
          "type": "address"
        },
        {
          "indexed": false,
          "internalType": "uint256",
          "name": "secondHighestBid",
          "type": "uint256"
        }
      ],
      "name": "AuctionEnded",
      "type": "event"
    },
    {
      "inputs": [
        {
          "internalType": "address",
          "name": "",
          "type": "address"
        },
        {
          "internalType": "uint256",
          "name": "",
          "type": "uint256"
        }
      ],
      "name": "auctions",
      "outputs": [
        {
          "internalType": "uint256",
          "name": "minimumPayout",
          "type": "uint256"
        },
        {
          "internalType": "uint256",
          "name": "reward",
          "type": "uint256"
        },
        {
          "internalType": "uint256",
          "name": "biddingDeadline",
          "type": "uint256"
        },
        {
          "internalType": "uint256",
          "name": "revealDeadline",
          "type": "uint256"
        },
        {
          "internalType": "uint256",
          "name": "bidsPlaced",
          "type": "uint256"
        },
        {
          "internalType": "uint256",
          "name": "highestBid",
          "type": "uint256"
        },
        {
          "internalType": "uint256",
          "name": "secondHighestBid",
          "type": "uint256"
        },
        {
          "internalType": "address",
          "name": "highestBidder",
          "type": "address"
        },
        {
          "internalType": "bool",
          "name": "ended",
          "type": "bool"
        },
        {
          "internalType": "bool",
          "name": "notPaid",
          "type": "bool"
        }
      ],
      "stateMutability": "view",
      "type": "function",
      "constant": true
    },
    {
      "inputs": [],
      "name": "token",
      "outputs": [
        {
          "internalType": "contract IERC20",
          "name": "",
          "type": "address"
        }
      ],
      "stateMutability": "view",
      "type": "function",
      "constant": true
    },
    {
      "inputs": [
        {
          "internalType": "uint256",
          "name": "_minimumPayout",
          "type": "uint256"
        },
        {
          "internalType": "uint256",
          "name": "_biddingDeadline",
          "type": "uint256"
        },
        {
          "internalType": "uint256",
          "name": "_revealDeadline",
          "type": "uint256"
        },
        {
          "internalType": "uint256",
          "name": "_reward",
          "type": "uint256"
        },
        {
          "internalType": "address",
          "name": "_endUser",
          "type": "address"
        }
      ],
      "name": "start",
      "outputs": [],
      "stateMutability": "nonpayable",
      "type": "function"
    },
    {
      "inputs": [
        {
          "internalType": "address",
          "name": "_endUser",
          "type": "address"
        },
        {
          "internalType": "uint256",
          "name": "_auctionId",
          "type": "uint256"
        },
        {
          "internalType": "bytes32",
          "name": "_blindedBid",
          "type": "bytes32"
        },
        {
          "internalType": "uint256",
          "name": "_amount",
          "type": "uint256"
        }
      ],
      "name": "bid",
      "outputs": [],
      "stateMutability": "nonpayable",
      "type": "function"
    },
    {
      "inputs": [
        {
          "internalType": "address",
          "name": "_endUser",
          "type": "address"
        },
        {
          "internalType": "uint256",
          "name": "_auctionId",
          "type": "uint256"
        },
        {
          "internalType": "uint256[]",
          "name": "_amounts",
          "type": "uint256[]"
        },
        {
          "internalType": "bool[]",
          "name": "_fake",
          "type": "bool[]"
        },
        {
          "internalType": "bytes32[]",
          "name": "_secret",
          "type": "bytes32[]"
        }
      ],
      "name": "reveal",
      "outputs": [],
      "stateMutability": "nonpayable",
      "type": "function"
    },
    {
      "inputs": [],
      "name": "withdraw",
      "outputs": [],
      "stateMutability": "nonpayable",
      "type": "function"
    },
    {
      "inputs": [
        {
          "internalType": "address",
          "name": "_endUser",
          "type": "address"
        },
        {
          "internalType": "uint256",
          "name": "_auctionId",
          "type": "uint256"
        }
      ],
      "name": "auctionEnd",
      "outputs": [],
      "stateMutability": "nonpayable",
      "type": "function"
    },
    {
      "inputs": [
        {
          "internalType": "address",
          "name": "_endUser",
          "type": "address"
        },
        {
          "internalType": "uint256",
          "name": "_auctionId",
          "type": "uint256"
        }
      ],
      "name": "payout",
      "outputs": [],
      "stateMutability": "nonpayable",
      "type": "function"
    }
  ],
  "bytecode": "0x60806040523480156200001157600080fd5b5060405162002cf038038062002cf0833981810160405281019062000037919062000095565b806000806101000a81548173ffffffffffffffffffffffffffffffffffffffff021916908373ffffffffffffffffffffffffffffffffffffffff1602179055505062000123565b6000815190506200008f8162000109565b92915050565b600060208284031215620000a857600080fd5b6000620000b8848285016200007e565b91505092915050565b6000620000ce82620000e9565b9050919050565b6000620000e282620000c1565b9050919050565b600073ffffffffffffffffffffffffffffffffffffffff82169050919050565b6200011481620000d5565b81146200012057600080fd5b50565b612bbd80620001336000396000f3fe608060405234801561001057600080fd5b50600436106100885760003560e01c806344f91c1e1161005b57806344f91c1e146100eb578063c56114c614610124578063e94a900e14610140578063fc0c546a1461015c57610088565b8063117de2fd1461008d5780631dcf249f146100a9578063290a2d10146100c55780633ccfd60b146100e1575b600080fd5b6100a760048036038101906100a291906121d0565b61017a565b005b6100c360048036038101906100be91906121d0565b6108a6565b005b6100df60048036038101906100da919061220c565b610c67565b005b6100e961117d565b005b610105600480360381019061010091906121d0565b6112c1565b60405161011b9a999897969594939291906126b7565b60405180910390f35b61013e60048036038101906101399190612380565b61136c565b005b61015a600480360381019061015591906122cb565b611512565b005b61016461195a565b60405161017191906125ca565b60405180910390f35b600160008373ffffffffffffffffffffffffffffffffffffffff1673ffffffffffffffffffffffffffffffffffffffff16815260200190815260200160002081815481106101f1577f4e487b7100000000000000000000000000000000000000000000000000000000600052603260045260246000fd5b906000526020600020906008020160070160149054906101000a900460ff1661024f576040517f08c379a000000000000000000000000000000000000000000000000000000000815260040161024690612625565b60405180910390fd5b600160008373ffffffffffffffffffffffffffffffffffffffff1673ffffffffffffffffffffffffffffffffffffffff16815260200190815260200160002081815481106102c6577f4e487b7100000000000000000000000000000000000000000000000000000000600052603260045260246000fd5b906000526020600020906008020160070160159054906101000a900460ff16610324576040517f08c379a000000000000000000000000000000000000000000000000000000000815260040161031b906125e5565b60405180910390fd5b6000600160008473ffffffffffffffffffffffffffffffffffffffff1673ffffffffffffffffffffffffffffffffffffffff168152602001908152602001600020828154811061039d577f4e487b7100000000000000000000000000000000000000000000000000000000600052603260045260246000fd5b90600052602060002090600802016004015414156104f05760008054906101000a900473ffffffffffffffffffffffffffffffffffffffff1673ffffffffffffffffffffffffffffffffffffffff1663a9059cbb83600160008673ffffffffffffffffffffffffffffffffffffffff1673ffffffffffffffffffffffffffffffffffffffff1681526020019081526020016000208481548110610469577f4e487b7100000000000000000000000000000000000000000000000000000000600052603260045260246000fd5b9060005260206000209060080201600101546040518363ffffffff1660e01b81526004016104989291906125a1565b602060405180830381600087803b1580156104b257600080fd5b505af11580156104c6573d6000803e3d6000fd5b505050506040513d601f19601f820116820180604052508101906104ea919061232e565b50610801565b6000600160008473ffffffffffffffffffffffffffffffffffffffff1673ffffffffffffffffffffffffffffffffffffffff1681526020019081526020016000208281548110610569577f4e487b7100000000000000000000000000000000000000000000000000000000600052603260045260246000fd5b906000526020600020906008020160060154600160008573ffffffffffffffffffffffffffffffffffffffff1673ffffffffffffffffffffffffffffffffffffffff16815260200190815260200160002083815481106105f2577f4e487b7100000000000000000000000000000000000000000000000000000000600052603260045260246000fd5b90600052602060002090600802016005015461060e9190612863565b90506000600160008573ffffffffffffffffffffffffffffffffffffffff1673ffffffffffffffffffffffffffffffffffffffff1681526020019081526020016000208381548110610689577f4e487b7100000000000000000000000000000000000000000000000000000000600052603260045260246000fd5b906000526020600020906008020160010154826106a6919061280d565b905060008054906101000a900473ffffffffffffffffffffffffffffffffffffffff1673ffffffffffffffffffffffffffffffffffffffff1663a9059cbb600160008773ffffffffffffffffffffffffffffffffffffffff1673ffffffffffffffffffffffffffffffffffffffff168152602001908152602001600020858154811061075b577f4e487b7100000000000000000000000000000000000000000000000000000000600052603260045260246000fd5b906000526020600020906008020160070160009054906101000a900473ffffffffffffffffffffffffffffffffffffffff16836040518363ffffffff1660e01b81526004016107ab9291906125a1565b602060405180830381600087803b1580156107c557600080fd5b505af11580156107d9573d6000803e3d6000fd5b505050506040513d601f19601f820116820180604052508101906107fd919061232e565b5050505b6000600160008473ffffffffffffffffffffffffffffffffffffffff1673ffffffffffffffffffffffffffffffffffffffff168152602001908152602001600020828154811061087a577f4e487b7100000000000000000000000000000000000000000000000000000000600052603260045260246000fd5b906000526020600020906008020160070160156101000a81548160ff0219169083151502179055505050565b600160008373ffffffffffffffffffffffffffffffffffffffff1673ffffffffffffffffffffffffffffffffffffffff168152602001908152602001600020818154811061091d577f4e487b7100000000000000000000000000000000000000000000000000000000600052603260045260246000fd5b90600052602060002090600802016003015480421161097357806040517f2a35a32400000000000000000000000000000000000000000000000000000000815260040161096a9190612665565b60405180910390fd5b600160008473ffffffffffffffffffffffffffffffffffffffff1673ffffffffffffffffffffffffffffffffffffffff16815260200190815260200160002082815481106109ea577f4e487b7100000000000000000000000000000000000000000000000000000000600052603260045260246000fd5b906000526020600020906008020160070160149054906101000a900460ff1615610a40576040517f61cfdcf800000000000000000000000000000000000000000000000000000000815260040160405180910390fd5b8273ffffffffffffffffffffffffffffffffffffffff167f4d31a5599cdb48031c1f03259adbd513be468c5735012719a1a9850869b558b183600160008773ffffffffffffffffffffffffffffffffffffffff1673ffffffffffffffffffffffffffffffffffffffff1681526020019081526020016000208581548110610af0577f4e487b7100000000000000000000000000000000000000000000000000000000600052603260045260246000fd5b906000526020600020906008020160070160009054906101000a900473ffffffffffffffffffffffffffffffffffffffff16600160008873ffffffffffffffffffffffffffffffffffffffff1673ffffffffffffffffffffffffffffffffffffffff1681526020019081526020016000208681548110610b99577f4e487b7100000000000000000000000000000000000000000000000000000000600052603260045260246000fd5b906000526020600020906008020160060154604051610bba93929190612680565b60405180910390a260018060008573ffffffffffffffffffffffffffffffffffffffff1673ffffffffffffffffffffffffffffffffffffffff1681526020019081526020016000208381548110610c3a577f4e487b7100000000000000000000000000000000000000000000000000000000600052603260045260246000fd5b906000526020600020906008020160070160146101000a81548160ff021916908315150217905550505050565b600160008673ffffffffffffffffffffffffffffffffffffffff1673ffffffffffffffffffffffffffffffffffffffff1681526020019081526020016000208481548110610cde577f4e487b7100000000000000000000000000000000000000000000000000000000600052603260045260246000fd5b906000526020600020906008020160020154804211610d3457806040517f2a35a324000000000000000000000000000000000000000000000000000000008152600401610d2b9190612665565b60405180910390fd5b600160008773ffffffffffffffffffffffffffffffffffffffff1673ffffffffffffffffffffffffffffffffffffffff1681526020019081526020016000208581548110610dab577f4e487b7100000000000000000000000000000000000000000000000000000000600052603260045260246000fd5b906000526020600020906008020160030154804210610e0157806040517f691e5682000000000000000000000000000000000000000000000000000000008152600401610df89190612665565b60405180910390fd5b6000600260003373ffffffffffffffffffffffffffffffffffffffff1673ffffffffffffffffffffffffffffffffffffffff168152602001908152602001600020805490509050600080600090505b828110156110c3576000600260003373ffffffffffffffffffffffffffffffffffffffff1673ffffffffffffffffffffffffffffffffffffffff1681526020019081526020016000208281548110610ed1577f4e487b7100000000000000000000000000000000000000000000000000000000600052603260045260246000fd5b906000526020600020906004020190508a73ffffffffffffffffffffffffffffffffffffffff168160020160009054906101000a900473ffffffffffffffffffffffffffffffffffffffff1673ffffffffffffffffffffffffffffffffffffffff16148015610f435750898160030154145b156110ae5760008060008b8581518110610f86577f4e487b7100000000000000000000000000000000000000000000000000000000600052603260045260246000fd5b60200260200101518b8681518110610fc7577f4e487b7100000000000000000000000000000000000000000000000000000000600052603260045260246000fd5b60200260200101518b8781518110611008577f4e487b7100000000000000000000000000000000000000000000000000000000600052603260045260246000fd5b602002602001015192509250925082828260405160200161102b93929190612504565b6040516020818303038152906040528051906020012084600001541461105457505050506110b0565b836001015486611064919061280d565b955081158015611078575082846001015410155b1561109e576110898e8e338661197e565b1561109d57828661109a9190612863565b95505b5b6000801b84600001819055505050505b505b80806110bb9061293e565b915050610e50565b5060008054906101000a900473ffffffffffffffffffffffffffffffffffffffff1673ffffffffffffffffffffffffffffffffffffffff1663a9059cbb33836040518363ffffffff1660e01b815260040161111f9291906125a1565b602060405180830381600087803b15801561113957600080fd5b505af115801561114d573d6000803e3d6000fd5b505050506040513d601f19601f82011682018060405250810190611171919061232e565b50505050505050505050565b6000600360003373ffffffffffffffffffffffffffffffffffffffff1673ffffffffffffffffffffffffffffffffffffffff16815260200190815260200160002054905060008111156112be576000600360003373ffffffffffffffffffffffffffffffffffffffff1673ffffffffffffffffffffffffffffffffffffffff1681526020019081526020016000208190555060008054906101000a900473ffffffffffffffffffffffffffffffffffffffff1673ffffffffffffffffffffffffffffffffffffffff1663a9059cbb33836040518363ffffffff1660e01b815260040161126a9291906125a1565b602060405180830381600087803b15801561128457600080fd5b505af1158015611298573d6000803e3d6000fd5b505050506040513d601f19601f820116820180604052508101906112bc919061232e565b505b50565b600160205281600052604060002081815481106112dd57600080fd5b9060005260206000209060080201600091509150508060000154908060010154908060020154908060030154908060040154908060050154908060060154908060070160009054906101000a900473ffffffffffffffffffffffffffffffffffffffff16908060070160149054906101000a900460ff16908060070160159054906101000a900460ff1690508a565b600160008273ffffffffffffffffffffffffffffffffffffffff1673ffffffffffffffffffffffffffffffffffffffff168152602001908152602001600020604051806101400160405280878152602001848152602001868152602001858152602001600081526020016000815260200160008152602001600073ffffffffffffffffffffffffffffffffffffffff168152602001600015158152602001600115158152509080600181540180825580915050600190039060005260206000209060080201600090919091909150600082015181600001556020820151816001015560408201518160020155606082015181600301556080820151816004015560a0820151816005015560c0820151816006015560e08201518160070160006101000a81548173ffffffffffffffffffffffffffffffffffffffff021916908373ffffffffffffffffffffffffffffffffffffffff1602179055506101008201518160070160146101000a81548160ff0219169083151502179055506101208201518160070160156101000a81548160ff02191690831515021790555050505050505050565b600160008573ffffffffffffffffffffffffffffffffffffffff1673ffffffffffffffffffffffffffffffffffffffff1681526020019081526020016000208381548110611589577f4e487b7100000000000000000000000000000000000000000000000000000000600052603260045260246000fd5b9060005260206000209060080201600201548042106115df57806040517f691e56820000000000000000000000000000000000000000000000000000000081526004016115d69190612665565b60405180910390fd5b600160008673ffffffffffffffffffffffffffffffffffffffff1673ffffffffffffffffffffffffffffffffffffffff1681526020019081526020016000208481548110611656577f4e487b7100000000000000000000000000000000000000000000000000000000600052603260045260246000fd5b90600052602060002090600802016000015482116116a9576040517f08c379a00000000000000000000000000000000000000000000000000000000081526004016116a090612605565b60405180910390fd5b60008060009054906101000a900473ffffffffffffffffffffffffffffffffffffffff1673ffffffffffffffffffffffffffffffffffffffff1663dd62ed3e33306040518363ffffffff1660e01b8152600401611707929190612541565b60206040518083038186803b15801561171f57600080fd5b505afa158015611733573d6000803e3d6000fd5b505050506040513d601f19601f820116820180604052508101906117579190612357565b90508281101561179c576040517f08c379a000000000000000000000000000000000000000000000000000000000815260040161179390612645565b60405180910390fd5b60008054906101000a900473ffffffffffffffffffffffffffffffffffffffff1673ffffffffffffffffffffffffffffffffffffffff166323b872dd3330866040518463ffffffff1660e01b81526004016117f99392919061256a565b602060405180830381600087803b15801561181357600080fd5b505af1158015611827573d6000803e3d6000fd5b505050506040513d601f19601f8201168201806040525081019061184b919061232e565b50600260003373ffffffffffffffffffffffffffffffffffffffff1673ffffffffffffffffffffffffffffffffffffffff16815260200190815260200160002060405180608001604052808681526020018581526020018873ffffffffffffffffffffffffffffffffffffffff168152602001878152509080600181540180825580915050600190039060005260206000209060040201600090919091909150600082015181600001556020820151816001015560408201518160020160006101000a81548173ffffffffffffffffffffffffffffffffffffffff021916908373ffffffffffffffffffffffffffffffffffffffff160217905550606082015181600301555050505050505050565b60008054906101000a900473ffffffffffffffffffffffffffffffffffffffff1681565b6000600160008673ffffffffffffffffffffffffffffffffffffffff1673ffffffffffffffffffffffffffffffffffffffff16815260200190815260200160002084815481106119f7577f4e487b7100000000000000000000000000000000000000000000000000000000600052603260045260246000fd5b9060005260206000209060080201600501548211611a185760009050611f88565b600073ffffffffffffffffffffffffffffffffffffffff16600160008773ffffffffffffffffffffffffffffffffffffffff1673ffffffffffffffffffffffffffffffffffffffff1681526020019081526020016000208581548110611aa7577f4e487b7100000000000000000000000000000000000000000000000000000000600052603260045260246000fd5b906000526020600020906008020160070160009054906101000a900473ffffffffffffffffffffffffffffffffffffffff1673ffffffffffffffffffffffffffffffffffffffff1614611c7b57600160008673ffffffffffffffffffffffffffffffffffffffff1673ffffffffffffffffffffffffffffffffffffffff1681526020019081526020016000208481548110611b6b577f4e487b7100000000000000000000000000000000000000000000000000000000600052603260045260246000fd5b90600052602060002090600802016005015460036000600160008973ffffffffffffffffffffffffffffffffffffffff1673ffffffffffffffffffffffffffffffffffffffff1681526020019081526020016000208781548110611bf8577f4e487b7100000000000000000000000000000000000000000000000000000000600052603260045260246000fd5b906000526020600020906008020160070160009054906101000a900473ffffffffffffffffffffffffffffffffffffffff1673ffffffffffffffffffffffffffffffffffffffff1673ffffffffffffffffffffffffffffffffffffffff1681526020019081526020016000206000828254611c73919061280d565b925050819055505b600160008673ffffffffffffffffffffffffffffffffffffffff1673ffffffffffffffffffffffffffffffffffffffff1681526020019081526020016000208481548110611cf2577f4e487b7100000000000000000000000000000000000000000000000000000000600052603260045260246000fd5b906000526020600020906008020160050154600160008773ffffffffffffffffffffffffffffffffffffffff1673ffffffffffffffffffffffffffffffffffffffff1681526020019081526020016000208581548110611d7b577f4e487b7100000000000000000000000000000000000000000000000000000000600052603260045260246000fd5b90600052602060002090600802016006018190555081600160008773ffffffffffffffffffffffffffffffffffffffff1673ffffffffffffffffffffffffffffffffffffffff1681526020019081526020016000208581548110611e08577f4e487b7100000000000000000000000000000000000000000000000000000000600052603260045260246000fd5b90600052602060002090600802016005018190555082600160008773ffffffffffffffffffffffffffffffffffffffff1673ffffffffffffffffffffffffffffffffffffffff1681526020019081526020016000208581548110611e95577f4e487b7100000000000000000000000000000000000000000000000000000000600052603260045260246000fd5b906000526020600020906008020160070160006101000a81548173ffffffffffffffffffffffffffffffffffffffff021916908373ffffffffffffffffffffffffffffffffffffffff16021790555060018060008773ffffffffffffffffffffffffffffffffffffffff1673ffffffffffffffffffffffffffffffffffffffff1681526020019081526020016000208581548110611f5c577f4e487b7100000000000000000000000000000000000000000000000000000000600052603260045260246000fd5b90600052602060002090600802016004016000828254611f7c919061280d565b92505081905550600190505b949350505050565b6000611fa3611f9e84612778565b612753565b90508083825260208201905082856020860282011115611fc257600080fd5b60005b85811015611ff25781611fd88882612167565b845260208401935060208301925050600181019050611fc5565b5050509392505050565b600061200f61200a846127a4565b612753565b9050808382526020820190508285602086028201111561202e57600080fd5b60005b8581101561205e57816120448882612191565b845260208401935060208301925050600181019050612031565b5050509392505050565b600061207b612076846127d0565b612753565b9050808382526020820190508285602086028201111561209a57600080fd5b60005b858110156120ca57816120b088826121a6565b84526020840193506020830192505060018101905061209d565b5050509392505050565b6000813590506120e381612b2b565b92915050565b600082601f8301126120fa57600080fd5b813561210a848260208601611f90565b91505092915050565b600082601f83011261212457600080fd5b8135612134848260208601611ffc565b91505092915050565b600082601f83011261214e57600080fd5b813561215e848260208601612068565b91505092915050565b60008135905061217681612b42565b92915050565b60008151905061218b81612b42565b92915050565b6000813590506121a081612b59565b92915050565b6000813590506121b581612b70565b92915050565b6000815190506121ca81612b70565b92915050565b600080604083850312156121e357600080fd5b60006121f1858286016120d4565b9250506020612202858286016121a6565b9150509250929050565b600080600080600060a0868803121561222457600080fd5b6000612232888289016120d4565b9550506020612243888289016121a6565b945050604086013567ffffffffffffffff81111561226057600080fd5b61226c8882890161213d565b935050606086013567ffffffffffffffff81111561228957600080fd5b612295888289016120e9565b925050608086013567ffffffffffffffff8111156122b257600080fd5b6122be88828901612113565b9150509295509295909350565b600080600080608085870312156122e157600080fd5b60006122ef878288016120d4565b9450506020612300878288016121a6565b935050604061231187828801612191565b9250506060612322878288016121a6565b91505092959194509250565b60006020828403121561234057600080fd5b600061234e8482850161217c565b91505092915050565b60006020828403121561236957600080fd5b6000612377848285016121bb565b91505092915050565b600080600080600060a0868803121561239857600080fd5b60006123a6888289016121a6565b95505060206123b7888289016121a6565b94505060406123c8888289016121a6565b93505060606123d9888289016121a6565b92505060806123ea888289016120d4565b9150509295509295909350565b61240081612897565b82525050565b61240f816128a9565b82525050565b612426612421826128a9565b612987565b82525050565b61243d612438826128b5565b612999565b82525050565b61244c816128e9565b82525050565b600061245f6020836127fc565b915061246a82612a3b565b602082019050919050565b6000612482602a836127fc565b915061248d82612a64565b604082019050919050565b60006124a5601c836127fc565b91506124b082612ab3565b602082019050919050565b60006124c86036836127fc565b91506124d382612adc565b604082019050919050565b6124e7816128df565b82525050565b6124fe6124f9826128df565b6129a3565b82525050565b600061251082866124ed565b6020820191506125208285612415565b600182019150612530828461242c565b602082019150819050949350505050565b600060408201905061255660008301856123f7565b61256360208301846123f7565b9392505050565b600060608201905061257f60008301866123f7565b61258c60208301856123f7565b61259960408301846124de565b949350505050565b60006040820190506125b660008301856123f7565b6125c360208301846124de565b9392505050565b60006020820190506125df6000830184612443565b92915050565b600060208201905081810360008301526125fe81612452565b9050919050565b6000602082019050818103600083015261261e81612475565b9050919050565b6000602082019050818103600083015261263e81612498565b9050919050565b6000602082019050818103600083015261265e816124bb565b9050919050565b600060208201905061267a60008301846124de565b92915050565b600060608201905061269560008301866124de565b6126a260208301856123f7565b6126af60408301846124de565b949350505050565b6000610140820190506126cd600083018d6124de565b6126da602083018c6124de565b6126e7604083018b6124de565b6126f4606083018a6124de565b61270160808301896124de565b61270e60a08301886124de565b61271b60c08301876124de565b61272860e08301866123f7565b612736610100830185612406565b612744610120830184612406565b9b9a5050505050505050505050565b600061275d61276e565b9050612769828261290d565b919050565b6000604051905090565b600067ffffffffffffffff821115612793576127926129ee565b5b602082029050602081019050919050565b600067ffffffffffffffff8211156127bf576127be6129ee565b5b602082029050602081019050919050565b600067ffffffffffffffff8211156127eb576127ea6129ee565b5b602082029050602081019050919050565b600082825260208201905092915050565b6000612818826128df565b9150612823836128df565b9250827fffffffffffffffffffffffffffffffffffffffffffffffffffffffffffffffff03821115612858576128576129bf565b5b828201905092915050565b600061286e826128df565b9150612879836128df565b92508282101561288c5761288b6129bf565b5b828203905092915050565b60006128a2826128bf565b9050919050565b60008115159050919050565b6000819050919050565b600073ffffffffffffffffffffffffffffffffffffffff82169050919050565b6000819050919050565b60006128f4826128fb565b9050919050565b6000612906826128bf565b9050919050565b61291682612a1d565b810181811067ffffffffffffffff82111715612935576129346129ee565b5b80604052505050565b6000612949826128df565b91507fffffffffffffffffffffffffffffffffffffffffffffffffffffffffffffffff82141561297c5761297b6129bf565b5b600182019050919050565b6000612992826129ad565b9050919050565b6000819050919050565b6000819050919050565b60006129b882612a2e565b9050919050565b7f4e487b7100000000000000000000000000000000000000000000000000000000600052601160045260246000fd5b7f4e487b7100000000000000000000000000000000000000000000000000000000600052604160045260246000fd5b6000601f19601f8301169050919050565b60008160f81b9050919050565b7f5669636b72657941756374696f6e20686173206265656e20706169642d6f7574600082015250565b7f5f616d6f756e74206d7573742062652067726561746572207468616e206d696e60008201527f696d756d5061796f757400000000000000000000000000000000000000000000602082015250565b7f5669636b72657941756374696f6e20686173206e6f7420656e64656400000000600082015250565b7f616c6c6f776564416d6f756e74206d757374206265206772656174657220746860008201527f616e206f7220657175616c20746f205f616d6f756e7400000000000000000000602082015250565b612b3481612897565b8114612b3f57600080fd5b50565b612b4b816128a9565b8114612b5657600080fd5b50565b612b62816128b5565b8114612b6d57600080fd5b50565b612b79816128df565b8114612b8457600080fd5b5056fea2646970667358221220a9420d63152991b4a068f171712757a3be1c25fb9a93cb8bae9e68a885ae2efc64736f6c63430008040033",
  "immutableReferences": {},
  "source": "// SPDX-License-Identifier: GPL-3.0\npragma solidity 0.8.4;\n\nimport './IERC20.sol';\n\n// TODO Review all usage of `public`\n// TODO Optimize storage writes with memory\n\ncontract VickreyAuction {\n\n    IERC20 public token;\n\n    // TODO Pack the following struct\n    struct Bid {\n        bytes32 blindedBid;\n        uint deposit;\n        address jobPoster;\n        uint auctionId;\n    }\n\n    /* uint public minimumPayout;\n    uint public biddingDeadline;\n    uint public revealDeadline;\n\n    address public endUser;\n    address public highestBidder;\n    uint public highestBid;\n    uint public secondHighestBid; */\n\n    struct Auction {\n        uint minimumPayout;\n        uint reward;\n        uint biddingDeadline;\n        uint revealDeadline;\n        uint bidsPlaced;\n        uint highestBid;\n        uint secondHighestBid;\n        address highestBidder;\n        bool ended;\n        bool notPaid;\n    }\n\n    mapping(address => Auction[]) public auctions;\n    mapping(address => Bid[]) bids;\n    mapping(address => uint) staleBids;\n\n    event AuctionEnded(\n        address indexed endUser,\n        uint auctionId,\n        address winner, \n        uint secondHighestBid\n    );\n    /* event BidPlaced(\n        address bidder,\n        uint amount\n    ); */\n\n    error TooEarly(uint time);\n    error TooLate(uint time);\n    error AuctionEndAlreadyCalled();\n\n    modifier onlyBefore(uint _time) {\n        if (block.timestamp >= _time) revert TooLate(_time);\n        _;\n    }\n    modifier onlyAfter(uint _time) {\n        if (block.timestamp <= _time) revert TooEarly(_time);\n        _;\n    }\n\n    // TODO 2 Use `initialize` instead of constructor to make the contract upgradable\n    constructor(\n        IERC20 _token\n    ) {\n        token = _token;\n    }\n\n    // FIXME 1 Right now, `reward` is just parameterized and there is no check,\n    //         in place; to make sure that the `endUser` is good for the funds\n    uint reward;\n\n    // FIXME 1 (continued)\n    // Have end-user actually transfer the funds and then check that the reward amount is equal to it\n    function start(\n        uint _minimumPayout,\n        uint _biddingDeadline,\n        uint _revealDeadline,\n        uint _reward,\n        address _endUser\n    )\n        public\n    {\n        auctions[_endUser].push(Auction({\n            minimumPayout: _minimumPayout,\n            reward: _reward,\n            biddingDeadline: _biddingDeadline,\n            revealDeadline: _revealDeadline,\n            bidsPlaced: 0,\n            highestBid: 0,\n            secondHighestBid: 0,\n            highestBidder: address(0),\n            ended: false,\n            notPaid: true\n        }));\n    }\n\n    function bid(\n        address _endUser,\n        uint _auctionId,\n        bytes32 _blindedBid,\n        uint _amount\n    )\n        public\n        onlyBefore(auctions[_endUser][_auctionId].biddingDeadline)\n    {\n        require(_amount > auctions[_endUser][_auctionId].minimumPayout,'_amount must be greater than minimumPayout');\n        uint allowedAmount = token.allowance(msg.sender,address(this));\n        require(allowedAmount >= _amount,'allowedAmount must be greater than or equal to _amount');\n        // TODO  1.5 Re-factor `transferFrom` to eliminate gas costs?\n        token.transferFrom(msg.sender,address(this),_amount);\n        bids[msg.sender].push(Bid({\n            blindedBid: _blindedBid,\n            deposit: _amount,\n            jobPoster: _endUser,\n            auctionId: _auctionId\n        }));\n    }\n\n    function reveal(\n        address _endUser,\n        uint _auctionId,\n        uint[] memory _amounts,\n        bool[] memory _fake,\n        bytes32[] memory _secret\n    )\n        public\n        onlyAfter(auctions[_endUser][_auctionId].biddingDeadline)\n        onlyBefore(auctions[_endUser][_auctionId].revealDeadline)\n    {\n        uint numberOfBids = bids[msg.sender].length;\n        // TODO Uncomment the follow checks:\n        // require(_amounts.length == numberOfBids,'_amounts.length must be equal to numberOfBids');\n        // require(_fake.length == numberOfBids,'_fake.length must be equal to numberOfBids');\n        // require(_secret.length == numberOfBids,'_secret.length must be equal to numberOfBids');\n        uint refund;\n        for (uint i = 0; i < numberOfBids; i++) {\n            Bid storage bidToCheck = bids[msg.sender][i];\n            if (bidToCheck.jobPoster == _endUser && bidToCheck.auctionId == _auctionId) {\n                (uint amount, bool fake, bytes32 secret) = (_amounts[i], _fake[i], _secret[i]);\n                if (bidToCheck.blindedBid != keccak256(abi.encodePacked(amount, fake, secret))) {\n                    continue;\n                }\n                refund += bidToCheck.deposit;\n                if (!fake && bidToCheck.deposit >= amount) {\n                    if (placeBid(_endUser, _auctionId, msg.sender, amount)) {\n                        refund -= amount;\n                    }\n                }\n                bidToCheck.blindedBid = bytes32(0);\n            }\n        }\n        // TODO 1 Replace the `transfer` invocation with a safer alternative\n        token.transfer(msg.sender,refund);\n    }\n\n    function withdraw() public {\n        uint amount = staleBids[msg.sender];\n        if (amount > 0) {\n            staleBids[msg.sender] = 0;\n            // TODO 1 Replace the `transfer` invocation with a safer alternative\n            token.transfer(msg.sender,amount);\n        }\n    }\n\n    function auctionEnd(\n        address _endUser,\n        uint _auctionId\n    )\n        public\n        onlyAfter(auctions[_endUser][_auctionId].revealDeadline)\n    {\n        if (auctions[_endUser][_auctionId].ended) revert AuctionEndAlreadyCalled();\n        emit AuctionEnded(\n            _endUser,\n            _auctionId,\n            auctions[_endUser][_auctionId].highestBidder,\n            auctions[_endUser][_auctionId].secondHighestBid);\n        auctions[_endUser][_auctionId].ended = true;\n    }\n\n    /// @dev This should be called by `_endUser`\n    function payout(\n        address _endUser,\n        uint _auctionId\n    )\n        public\n    {\n        require(auctions[_endUser][_auctionId].ended, 'VickreyAuction has not ended');\n        require(auctions[_endUser][_auctionId].notPaid, 'VickreyAuction has been paid-out');\n        if (auctions[_endUser][_auctionId].bidsPlaced == 0) {\n            token.transfer(_endUser, auctions[_endUser][_auctionId].reward);\n        } else {\n            // TODO 1 Replace the `transfer` invocation with a safer alternative\n            uint leftover = auctions[_endUser][_auctionId].highestBid - auctions[_endUser][_auctionId].secondHighestBid;\n            // TODO n Does `auctions[_endUser][_auctionId].reward` need to be set to `0`, like `amount` is in other places?\n            uint workerPay = leftover + auctions[_endUser][_auctionId].reward;\n            // TODO 4 Optimize the `transfer` of `leftover` to `highestBidder`\n            // TODO 1 Replace the `transfer` invocation with a safer alternative\n            token.transfer(auctions[_endUser][_auctionId].highestBidder, workerPay);\n        }\n        auctions[_endUser][_auctionId].notPaid = false;\n    }\n\n    function placeBid(\n        address _endUser,\n        uint _auctionId,\n        address _bidder,\n        uint _amount\n    )\n        internal\n        returns (bool success)\n    {\n        if (_amount <= auctions[_endUser][_auctionId].highestBid) {\n            return false;\n        }\n        if (auctions[_endUser][_auctionId].highestBidder != address(0)) {\n            staleBids[auctions[_endUser][_auctionId].highestBidder] += auctions[_endUser][_auctionId].highestBid;\n        }\n        auctions[_endUser][_auctionId].secondHighestBid = auctions[_endUser][_auctionId].highestBid;\n        auctions[_endUser][_auctionId].highestBid = _amount;\n        auctions[_endUser][_auctionId].highestBidder = _bidder;\n        // TODO Possible cruft below\n        /* emit BidPlaced(\n            auctions[_endUser][_auctionId].highestBidder,\n            auctions[_endUser][_auctionId].highestBid); */\n        auctions[_endUser][_auctionId].bidsPlaced += 1;\n        return true;\n    }\n}\n",
  "sourcePath": "/home/wsladmin/Morphware/service/contracts/VickreyAuction.sol",
  "compiler": {
    "name": "solc",
    "version": "0.8.4+commit.c7e474f2.Emscripten.clang"
  },
  "schemaVersion": "3.4.1",
  "updatedAt": "2021-09-24T18:09:57.400Z",
  "networkType": "ethereum",
  "devdoc": {
    "kind": "dev",
    "methods": {
      "payout(address,uint256)": {
        "details": "This should be called by `_endUser`"
      }
    },
    "version": 1
  },
  "userdoc": {
    "kind": "user",
    "methods": {},
    "version": 1
  }
}